{
  "contractName": "CryptoGhosts",
  "abi": [
    {
      "constant": true,
      "inputs": [
        {
          "name": "_ghostId",
          "type": "uint256"
        }
      ],
      "name": "getHeadItem",
      "outputs": [
        {
          "name": "",
          "type": "uint256"
        }
      ],
      "payable": false,
      "stateMutability": "view",
      "type": "function"
    },
    {
      "constant": false,
      "inputs": [
        {
          "name": "_ghostId",
          "type": "uint256"
        },
        {
          "name": "_item",
          "type": "uint256"
        }
      ],
      "name": "EquipHeadItem",
      "outputs": [],
      "payable": false,
      "stateMutability": "nonpayable",
      "type": "function"
    },
    {
      "constant": false,
      "inputs": [
        {
          "name": "_to",
          "type": "address"
        },
        {
          "name": "_tokenId",
          "type": "uint256"
        }
      ],
      "name": "approve",
      "outputs": [],
      "payable": false,
      "stateMutability": "nonpayable",
      "type": "function"
    },
    {
      "constant": true,
      "inputs": [],
      "name": "totalSupply",
      "outputs": [
        {
          "name": "",
          "type": "uint256"
        }
      ],
      "payable": false,
      "stateMutability": "view",
      "type": "function"
    },
    {
      "constant": true,
      "inputs": [
        {
          "name": "_tokenId",
          "type": "uint256"
        }
      ],
      "name": "approvedFor",
      "outputs": [
        {
          "name": "",
          "type": "address"
        }
      ],
      "payable": false,
      "stateMutability": "view",
      "type": "function"
    },
    {
      "constant": true,
      "inputs": [
        {
          "name": "_ghostId",
          "type": "uint256"
        }
      ],
      "name": "getRightHandItem",
      "outputs": [
        {
          "name": "",
          "type": "uint256"
        }
      ],
      "payable": false,
      "stateMutability": "view",
      "type": "function"
    },
    {
      "constant": true,
      "inputs": [
        {
          "name": "_account",
          "type": "address"
        }
      ],
      "name": "itemTypesOf",
      "outputs": [
        {
          "name": "",
          "type": "uint256[]"
        }
      ],
      "payable": false,
      "stateMutability": "view",
      "type": "function"
    },
    {
      "constant": true,
      "inputs": [
        {
          "name": "_owner",
          "type": "address"
        }
      ],
      "name": "tokensOf",
      "outputs": [
        {
          "name": "",
          "type": "uint256[]"
        }
      ],
      "payable": false,
      "stateMutability": "view",
      "type": "function"
    },
    {
      "constant": true,
      "inputs": [
        {
          "name": "_tokenId",
          "type": "uint256"
        }
      ],
      "name": "ownerOf",
      "outputs": [
        {
          "name": "",
          "type": "address"
        }
      ],
      "payable": false,
      "stateMutability": "view",
      "type": "function"
    },
    {
      "constant": true,
      "inputs": [
        {
          "name": "_ghostId",
          "type": "uint256"
        }
      ],
      "name": "getFaceItem",
      "outputs": [
        {
          "name": "",
          "type": "uint256"
        }
      ],
      "payable": false,
      "stateMutability": "view",
      "type": "function"
    },
    {
      "constant": true,
      "inputs": [
        {
          "name": "_owner",
          "type": "address"
        }
      ],
      "name": "balanceOf",
      "outputs": [
        {
          "name": "",
          "type": "uint256"
        }
      ],
      "payable": false,
      "stateMutability": "view",
      "type": "function"
    },
    {
      "constant": true,
      "inputs": [
        {
          "name": "_account",
          "type": "address"
        }
      ],
      "name": "itemsOf",
      "outputs": [
        {
          "name": "",
          "type": "uint256[]"
        }
      ],
      "payable": false,
      "stateMutability": "view",
      "type": "function"
    },
    {
      "constant": true,
      "inputs": [
        {
          "name": "_ghostId",
          "type": "uint256"
        }
      ],
      "name": "getChestItem",
      "outputs": [
        {
          "name": "",
          "type": "uint256"
        }
      ],
      "payable": false,
      "stateMutability": "view",
      "type": "function"
    },
    {
      "constant": true,
      "inputs": [
        {
          "name": "_ghostId",
          "type": "uint256"
        }
      ],
      "name": "getLeftHandItem",
      "outputs": [
        {
          "name": "",
          "type": "uint256"
        }
      ],
      "payable": false,
      "stateMutability": "view",
      "type": "function"
    },
    {
      "constant": true,
      "inputs": [],
      "name": "owner",
      "outputs": [
        {
          "name": "",
          "type": "address"
        }
      ],
      "payable": false,
      "stateMutability": "view",
      "type": "function"
    },
    {
      "constant": true,
      "inputs": [
        {
          "name": "_ghostId",
          "type": "uint256"
        }
      ],
      "name": "getGhostName",
      "outputs": [
        {
          "name": "",
          "type": "string"
        }
      ],
      "payable": false,
      "stateMutability": "view",
      "type": "function"
    },
    {
      "constant": false,
      "inputs": [
        {
          "name": "_to",
          "type": "address"
        },
        {
          "name": "_tokenId",
          "type": "uint256"
        }
      ],
      "name": "transfer",
      "outputs": [],
      "payable": false,
      "stateMutability": "nonpayable",
      "type": "function"
    },
    {
      "constant": false,
      "inputs": [
        {
          "name": "_to",
          "type": "address"
        },
        {
          "name": "_itemType",
          "type": "uint256"
        },
        {
          "name": "_amount",
          "type": "uint256"
        }
      ],
      "name": "CreateItems",
      "outputs": [],
      "payable": false,
      "stateMutability": "nonpayable",
      "type": "function"
    },
    {
      "constant": false,
      "inputs": [
        {
          "name": "_tokenId",
          "type": "uint256"
        }
      ],
      "name": "takeOwnership",
      "outputs": [],
      "payable": false,
      "stateMutability": "nonpayable",
      "type": "function"
    },
    {
      "constant": true,
      "inputs": [
        {
          "name": "_ghostId",
          "type": "uint256"
        }
      ],
      "name": "getBodyType",
      "outputs": [
        {
          "name": "",
          "type": "uint256"
        }
      ],
      "payable": false,
      "stateMutability": "view",
      "type": "function"
    },
    {
      "constant": true,
      "inputs": [
        {
          "name": "_itemId",
          "type": "uint256"
        }
      ],
      "name": "getItemType",
      "outputs": [
        {
          "name": "",
          "type": "uint256"
        }
      ],
      "payable": false,
      "stateMutability": "view",
      "type": "function"
    },
    {
      "constant": false,
      "inputs": [
        {
          "name": "_ghostId",
          "type": "uint256"
        },
        {
          "name": "_name",
          "type": "string"
        }
      ],
      "name": "NameGhost",
      "outputs": [],
      "payable": false,
      "stateMutability": "nonpayable",
      "type": "function"
    },
    {
      "constant": true,
      "inputs": [
        {
          "name": "_ghostId",
          "type": "uint256"
        }
      ],
      "name": "getEquippedItems",
      "outputs": [
        {
          "name": "",
          "type": "uint256"
        },
        {
          "name": "",
          "type": "uint256"
        },
        {
          "name": "",
          "type": "uint256"
        },
        {
          "name": "",
          "type": "uint256"
        },
        {
          "name": "",
          "type": "uint256"
        }
      ],
      "payable": false,
      "stateMutability": "view",
      "type": "function"
    },
    {
      "constant": false,
      "inputs": [
        {
          "name": "newOwner",
          "type": "address"
        }
      ],
      "name": "transferOwnership",
      "outputs": [],
      "payable": false,
      "stateMutability": "nonpayable",
      "type": "function"
    },
    {
      "anonymous": false,
      "inputs": [
        {
          "indexed": true,
          "name": "previousOwner",
          "type": "address"
        },
        {
          "indexed": true,
          "name": "newOwner",
          "type": "address"
        }
      ],
      "name": "OwnershipTransferred",
      "type": "event"
    },
    {
      "anonymous": false,
      "inputs": [
        {
          "indexed": true,
          "name": "_from",
          "type": "address"
        },
        {
          "indexed": true,
          "name": "_to",
          "type": "address"
        },
        {
          "indexed": false,
          "name": "_tokenId",
          "type": "uint256"
        }
      ],
      "name": "Transfer",
      "type": "event"
    },
    {
      "anonymous": false,
      "inputs": [
        {
          "indexed": true,
          "name": "_owner",
          "type": "address"
        },
        {
          "indexed": true,
          "name": "_approved",
          "type": "address"
        },
        {
          "indexed": false,
          "name": "_tokenId",
          "type": "uint256"
        }
      ],
      "name": "Approval",
      "type": "event"
    },
    {
      "constant": false,
      "inputs": [
        {
          "name": "_account",
          "type": "address"
        },
        {
          "name": "_ghostType",
          "type": "uint256"
        },
        {
          "name": "_name",
          "type": "string"
        }
      ],
      "name": "CreateGhost",
      "outputs": [],
      "payable": false,
      "stateMutability": "nonpayable",
      "type": "function"
    },
    {
      "constant": false,
      "inputs": [
        {
          "name": "_account",
          "type": "address"
        },
        {
          "name": "_ghostType",
          "type": "uint256"
        },
        {
          "name": "_name",
          "type": "string"
        },
        {
          "name": "_amount",
          "type": "uint256"
        }
      ],
      "name": "CreateGhosts",
      "outputs": [],
      "payable": false,
      "stateMutability": "nonpayable",
      "type": "function"
    },
    {
      "constant": true,
      "inputs": [
        {
          "name": "_account",
          "type": "address"
        }
      ],
      "name": "ghostsOf",
      "outputs": [
        {
          "name": "",
          "type": "uint256[]"
        },
        {
          "name": "",
          "type": "uint256[]"
        }
      ],
      "payable": false,
      "stateMutability": "view",
      "type": "function"
    },
    {
      "constant": true,
      "inputs": [],
      "name": "name",
      "outputs": [
        {
          "name": "",
          "type": "string"
        }
      ],
      "payable": false,
      "stateMutability": "pure",
      "type": "function"
    }
  ],
  "bytecode": "0x606060405260006009556000600f5533600560006101000a81548173ffffffffffffffffffffffffffffffffffffffff021916908373ffffffffffffffffffffffffffffffffffffffff1602179055506123398061005e6000396000f30060606040526004361061016a576000357c0100000000000000000000000000000000000000000000000000000000900463ffffffff16806306fdde031461016f57806307061522146101fd5780630746d6f014610234578063095ea7b31461026057806318160ddd146102a257806319922ba6146102cb5780632a6dd48f14610350578063307eb968146103b3578063563949d6146103ea5780635a3f2672146104785780636352211e14610506578063695c86ea1461056957806370a08231146105a05780637231a876146105ed5780637319ecd71461067b57806381d18599146106b257806385aabd46146107405780638da5cb5b14610777578063917f17ce146107cc57806396a0b20514610868578063a9059cbb1461093e578063ad8125aa14610980578063b2e6ceeb146109cb578063c0bca5a6146109ee578063c19a4ef514610a25578063dc66251c14610a5c578063e1cb414814610ac2578063f2fde38b14610b15575b600080fd5b341561017a57600080fd5b610182610b4e565b6040518080602001828103825283818151815260200191508051906020019080838360005b838110156101c25780820151818401526020810190506101a7565b50505050905090810190601f1680156101ef5780820380516001836020036101000a031916815260200191505b509250505060405180910390f35b341561020857600080fd5b61021e6004808035906020019091905050610b91565b6040518082815260200191505060405180910390f35b341561023f57600080fd5b61025e6004808035906020019091908035906020019091905050610bb1565b005b341561026b57600080fd5b6102a0600480803573ffffffffffffffffffffffffffffffffffffffff16906020019091908035906020019091905050610c14565b005b34156102ad57600080fd5b6102b5610da7565b6040518082815260200191505060405180910390f35b34156102d657600080fd5b61034e600480803573ffffffffffffffffffffffffffffffffffffffff1690602001909190803590602001909190803590602001908201803590602001908080601f01602080910402602001604051908101604052809392919081815260200183838082843782019150505050505091905050610db0565b005b341561035b57600080fd5b6103716004808035906020019091905050610eea565b604051808273ffffffffffffffffffffffffffffffffffffffff1673ffffffffffffffffffffffffffffffffffffffff16815260200191505060405180910390f35b34156103be57600080fd5b6103d46004808035906020019091905050610f27565b6040518082815260200191505060405180910390f35b34156103f557600080fd5b610421600480803573ffffffffffffffffffffffffffffffffffffffff16906020019091905050610f47565b6040518080602001828103825283818151815260200191508051906020019060200280838360005b83811015610464578082015181840152602081019050610449565b505050509050019250505060405180910390f35b341561048357600080fd5b6104af600480803573ffffffffffffffffffffffffffffffffffffffff169060200190919050506110a9565b6040518080602001828103825283818151815260200191508051906020019060200280838360005b838110156104f25780820151818401526020810190506104d7565b505050509050019250505060405180910390f35b341561051157600080fd5b6105276004808035906020019091905050611146565b604051808273ffffffffffffffffffffffffffffffffffffffff1673ffffffffffffffffffffffffffffffffffffffff16815260200191505060405180910390f35b341561057457600080fd5b61058a60048080359060200190919050506111c4565b6040518082815260200191505060405180910390f35b34156105ab57600080fd5b6105d7600480803573ffffffffffffffffffffffffffffffffffffffff169060200190919050506111e4565b6040518082815260200191505060405180910390f35b34156105f857600080fd5b610624600480803573ffffffffffffffffffffffffffffffffffffffff16906020019091905050611230565b6040518080602001828103825283818151815260200191508051906020019060200280838360005b8381101561066757808201518184015260208101905061064c565b505050509050019250505060405180910390f35b341561068657600080fd5b61069c60048080359060200190919050506112cd565b6040518082815260200191505060405180910390f35b34156106bd57600080fd5b61073e600480803573ffffffffffffffffffffffffffffffffffffffff1690602001909190803590602001909190803590602001908201803590602001908080601f016020809104026020016040519081016040528093929190818152602001838380828437820191505050505050919080359060200190919050506112ed565b005b341561074b57600080fd5b6107616004808035906020019091905050611445565b6040518082815260200191505060405180910390f35b341561078257600080fd5b61078a611465565b604051808273ffffffffffffffffffffffffffffffffffffffff1673ffffffffffffffffffffffffffffffffffffffff16815260200191505060405180910390f35b34156107d757600080fd5b6107ed600480803590602001909190505061148b565b6040518080602001828103825283818151815260200191508051906020019080838360005b8381101561082d578082015181840152602081019050610812565b50505050905090810190601f16801561085a5780820380516001836020036101000a031916815260200191505b509250505060405180910390f35b341561087357600080fd5b61089f600480803573ffffffffffffffffffffffffffffffffffffffff16906020019091905050611546565b604051808060200180602001838103835285818151815260200191508051906020019060200280838360005b838110156108e65780820151818401526020810190506108cb565b50505050905001838103825284818151815260200191508051906020019060200280838360005b8381101561092857808201518184015260208101905061090d565b5050505090500194505050505060405180910390f35b341561094957600080fd5b61097e600480803573ffffffffffffffffffffffffffffffffffffffff169060200190919080359060200190919050506115fa565b005b341561098b57600080fd5b6109c9600480803573ffffffffffffffffffffffffffffffffffffffff1690602001909190803590602001909190803590602001909190505061164d565b005b34156109d657600080fd5b6109ec60048080359060200190919050506117f6565b005b34156109f957600080fd5b610a0f6004808035906020019091905050611821565b6040518082815260200191505060405180910390f35b3415610a3057600080fd5b610a46600480803590602001909190505061183e565b6040518082815260200191505060405180910390f35b3415610a6757600080fd5b610ac0600480803590602001909190803590602001908201803590602001908080601f0160208091040260200160405190810160405280939291908181526020018383808284378201915050505050509190505061185b565b005b3415610acd57600080fd5b610ae360048080359060200190919050506118cb565b604051808681526020018581526020018481526020018381526020018281526020019550505050505060405180910390f35b3415610b2057600080fd5b610b4c600480803573ffffffffffffffffffffffffffffffffffffffff16906020019091905050611959565b005b610b566121e8565b6040805190810160405280600c81526020017f43727970746f47686f7374730000000000000000000000000000000000000000815250905090565b600060066000838152602001908152602001600020600001549050919050565b813373ffffffffffffffffffffffffffffffffffffffff16610bd282611146565b73ffffffffffffffffffffffffffffffffffffffff16141515610bf457600080fd5b816006600085815260200190815260200160002060000181905550505050565b6000813373ffffffffffffffffffffffffffffffffffffffff16610c3782611146565b73ffffffffffffffffffffffffffffffffffffffff16141515610c5957600080fd5b610c6283611146565b91508173ffffffffffffffffffffffffffffffffffffffff168473ffffffffffffffffffffffffffffffffffffffff1614151515610c9f57600080fd5b6000610caa84610eea565b73ffffffffffffffffffffffffffffffffffffffff16141580610ce4575060008473ffffffffffffffffffffffffffffffffffffffff1614155b15610da157836002600085815260200190815260200160002060006101000a81548173ffffffffffffffffffffffffffffffffffffffff021916908373ffffffffffffffffffffffffffffffffffffffff1602179055508373ffffffffffffffffffffffffffffffffffffffff168273ffffffffffffffffffffffffffffffffffffffff167f8c5be1e5ebec7d5bd14f71427d1e84f3dd0314c0f7b2291e5b200ac8c7c3b925856040518082815260200191505060405180910390a35b50505050565b60008054905090565b600560009054906101000a900473ffffffffffffffffffffffffffffffffffffffff1673ffffffffffffffffffffffffffffffffffffffff163373ffffffffffffffffffffffffffffffffffffffff16141515610e0c57600080fd5b600f60008154809291906001019190505550610e2a83600f54611ab1565b8060076000600f5481526020019081526020016000209080519060200190610e539291906121fc565b508160086000600f5481526020019081526020016000208190555060a06040519081016040528060008152602001600081526020016000815260200160008152602001600081525060066000600f5481526020019081526020016000206000820151816000015560208201518160010155604082015181600201556060820151816003015560808201518160040155905050505050565b60006002600083815260200190815260200160002060009054906101000a900473ffffffffffffffffffffffffffffffffffffffff169050919050565b600060066000838152602001908152602001600020600401549050919050565b610f4f61227c565b610f5761227c565b6000600c60008573ffffffffffffffffffffffffffffffffffffffff1673ffffffffffffffffffffffffffffffffffffffff16815260200190815260200160002080549050604051805910610fa95750595b90808252806020026020018201604052509150600090505b600c60008573ffffffffffffffffffffffffffffffffffffffff1673ffffffffffffffffffffffffffffffffffffffff1681526020019081526020016000208054905081101561109f57600e6000600c60008773ffffffffffffffffffffffffffffffffffffffff1673ffffffffffffffffffffffffffffffffffffffff1681526020019081526020016000208381548110151561105b57fe5b906000526020600020900154815260200190815260200160002054828281518110151561108457fe5b90602001906020020181815250508080600101915050610fc1565b8192505050919050565b6110b161227c565b600360008373ffffffffffffffffffffffffffffffffffffffff1673ffffffffffffffffffffffffffffffffffffffff16815260200190815260200160002080548060200260200160405190810160405280929190818152602001828054801561113a57602002820191906000526020600020905b815481526020019060010190808311611126575b50505050509050919050565b6000806001600084815260200190815260200160002060009054906101000a900473ffffffffffffffffffffffffffffffffffffffff169050600073ffffffffffffffffffffffffffffffffffffffff168173ffffffffffffffffffffffffffffffffffffffff16141515156111bb57600080fd5b80915050919050565b600060066000838152602001908152602001600020600201549050919050565b6000600360008373ffffffffffffffffffffffffffffffffffffffff1673ffffffffffffffffffffffffffffffffffffffff168152602001908152602001600020805490509050919050565b61123861227c565b600c60008373ffffffffffffffffffffffffffffffffffffffff1673ffffffffffffffffffffffffffffffffffffffff1681526020019081526020016000208054806020026020016040519081016040528092919081815260200182805480156112c157602002820191906000526020600020905b8154815260200190600101908083116112ad575b50505050509050919050565b600060066000838152602001908152602001600020600101549050919050565b6000600560009054906101000a900473ffffffffffffffffffffffffffffffffffffffff1673ffffffffffffffffffffffffffffffffffffffff163373ffffffffffffffffffffffffffffffffffffffff1614151561134b57600080fd5b600090505b8181101561143e57600f6000815480929190600101919050555061137685600f54611ab1565b8260076000600f548152602001908152602001600020908051906020019061139f9291906121fc565b508360086000600f5481526020019081526020016000208190555060a06040519081016040528060008152602001600081526020016000815260200160008152602001600081525060066000600f54815260200190815260200160002060008201518160000155602082015181600101556040820151816002015560608201518160030155608082015181600401559050508080600101915050611350565b5050505050565b600060066000838152602001908152602001600020600301549050919050565b600560009054906101000a900473ffffffffffffffffffffffffffffffffffffffff1681565b6114936121e8565b600760008381526020019081526020016000208054600181600116156101000203166002900480601f01602080910402602001604051908101604052809291908181526020018280546001816001161561010002031660029004801561153a5780601f1061150f5761010080835404028352916020019161153a565b820191906000526020600020905b81548152906001019060200180831161151d57829003601f168201915b50505050509050919050565b61154e61227c565b61155661227c565b61155e61227c565b61156661227c565b6000611571866110a9565b925082516040518059106115825750595b90808252806020026020018201604052509150600090505b82518110156115ec576115c383828151811015156115b457fe5b90602001906020020151611821565b82828151811015156115d157fe5b9060200190602002018181525050808060010191505061159a565b828294509450505050915091565b803373ffffffffffffffffffffffffffffffffffffffff1661161b82611146565b73ffffffffffffffffffffffffffffffffffffffff1614151561163d57600080fd5b611648338484611b4b565b505050565b600080600560009054906101000a900473ffffffffffffffffffffffffffffffffffffffff1673ffffffffffffffffffffffffffffffffffffffff163373ffffffffffffffffffffffffffffffffffffffff161415156116ac57600080fd5b600091505b828210156117ef576009600081548092919060010191905055506116d4856111e4565b905080600d600060095481526020019081526020016000208190555083600e600060095481526020019081526020016000208190555084600b6000600954815260200190815260200160002060006101000a81548173ffffffffffffffffffffffffffffffffffffffff021916908373ffffffffffffffffffffffffffffffffffffffff160217905550600c60008673ffffffffffffffffffffffffffffffffffffffff1673ffffffffffffffffffffffffffffffffffffffff16815260200190815260200160002080548060010182816117af9190612290565b91600052602060002090016000600954909190915055506117dc6001600a54611c9490919063ffffffff16565b600a8190555081806001019250506116b1565b5050505050565b6118003382611cb2565b151561180b57600080fd5b61181e61181782611146565b3383611b4b565b50565b600060086000838152602001908152602001600020549050919050565b6000600e6000838152602001908152602001600020549050919050565b813373ffffffffffffffffffffffffffffffffffffffff1661187c82611146565b73ffffffffffffffffffffffffffffffffffffffff1614151561189e57600080fd5b816007600085815260200190815260200160002090805190602001906118c59291906121fc565b50505050565b6000806000806000600660008781526020019081526020016000206000015460066000888152602001908152602001600020600101546006600089815260200190815260200160002060020154600660008a815260200190815260200160002060030154600660008b8152602001908152602001600020600401549450945094509450945091939590929450565b600560009054906101000a900473ffffffffffffffffffffffffffffffffffffffff1673ffffffffffffffffffffffffffffffffffffffff163373ffffffffffffffffffffffffffffffffffffffff161415156119b557600080fd5b600073ffffffffffffffffffffffffffffffffffffffff168173ffffffffffffffffffffffffffffffffffffffff16141515156119f157600080fd5b8073ffffffffffffffffffffffffffffffffffffffff16600560009054906101000a900473ffffffffffffffffffffffffffffffffffffffff1673ffffffffffffffffffffffffffffffffffffffff167f8be0079c531659141344cd1fd0a4f28419497f9722a3daafe3b4186f6b6457e060405160405180910390a380600560006101000a81548173ffffffffffffffffffffffffffffffffffffffff021916908373ffffffffffffffffffffffffffffffffffffffff16021790555050565b600073ffffffffffffffffffffffffffffffffffffffff168273ffffffffffffffffffffffffffffffffffffffff1614151515611aed57600080fd5b611af78282611cf3565b8173ffffffffffffffffffffffffffffffffffffffff1660007fddf252ad1be2c89b69c2b068fc378daa952ba7f163c4a11628f55a4df523b3ef836040518082815260200191505060405180910390a35050565b600073ffffffffffffffffffffffffffffffffffffffff168273ffffffffffffffffffffffffffffffffffffffff1614151515611b8757600080fd5b611b9081611146565b73ffffffffffffffffffffffffffffffffffffffff168273ffffffffffffffffffffffffffffffffffffffff1614151515611bca57600080fd5b8273ffffffffffffffffffffffffffffffffffffffff16611bea82611146565b73ffffffffffffffffffffffffffffffffffffffff16141515611c0c57600080fd5b611c168382611e5e565b611c208382611f47565b611c2a8282611cf3565b8173ffffffffffffffffffffffffffffffffffffffff168373ffffffffffffffffffffffffffffffffffffffff167fddf252ad1be2c89b69c2b068fc378daa952ba7f163c4a11628f55a4df523b3ef836040518082815260200191505060405180910390a3505050565b6000808284019050838110151515611ca857fe5b8091505092915050565b60008273ffffffffffffffffffffffffffffffffffffffff16611cd483610eea565b73ffffffffffffffffffffffffffffffffffffffff1614905092915050565b60008073ffffffffffffffffffffffffffffffffffffffff166001600084815260200190815260200160002060009054906101000a900473ffffffffffffffffffffffffffffffffffffffff1673ffffffffffffffffffffffffffffffffffffffff16141515611d6257600080fd5b826001600084815260200190815260200160002060006101000a81548173ffffffffffffffffffffffffffffffffffffffff021916908373ffffffffffffffffffffffffffffffffffffffff160217905550611dbd836111e4565b9050600360008473ffffffffffffffffffffffffffffffffffffffff1673ffffffffffffffffffffffffffffffffffffffff1681526020019081526020016000208054806001018281611e109190612290565b916000526020600020900160008490919091505550806004600084815260200190815260200160002081905550611e536001600054611c9490919063ffffffff16565b600081905550505050565b8173ffffffffffffffffffffffffffffffffffffffff16611e7e82611146565b73ffffffffffffffffffffffffffffffffffffffff16141515611ea057600080fd5b60006002600083815260200190815260200160002060006101000a81548173ffffffffffffffffffffffffffffffffffffffff021916908373ffffffffffffffffffffffffffffffffffffffff16021790555060008273ffffffffffffffffffffffffffffffffffffffff167f8c5be1e5ebec7d5bd14f71427d1e84f3dd0314c0f7b2291e5b200ac8c7c3b925836040518082815260200191505060405180910390a35050565b60008060008473ffffffffffffffffffffffffffffffffffffffff16611f6c85611146565b73ffffffffffffffffffffffffffffffffffffffff16141515611f8e57600080fd5b60046000858152602001908152602001600020549250611fc06001611fb2876111e4565b6121cf90919063ffffffff16565b9150600360008673ffffffffffffffffffffffffffffffffffffffff1673ffffffffffffffffffffffffffffffffffffffff1681526020019081526020016000208281548110151561200e57fe5b906000526020600020900154905060006001600086815260200190815260200160002060006101000a81548173ffffffffffffffffffffffffffffffffffffffff021916908373ffffffffffffffffffffffffffffffffffffffff16021790555080600360008773ffffffffffffffffffffffffffffffffffffffff1673ffffffffffffffffffffffffffffffffffffffff168152602001908152602001600020848154811015156120bc57fe5b9060005260206000209001819055506000600360008773ffffffffffffffffffffffffffffffffffffffff1673ffffffffffffffffffffffffffffffffffffffff1681526020019081526020016000208381548110151561211957fe5b906000526020600020900181905550600360008673ffffffffffffffffffffffffffffffffffffffff1673ffffffffffffffffffffffffffffffffffffffff16815260200190815260200160002080548091906001900361217a91906122bc565b50600060046000868152602001908152602001600020819055508260046000838152602001908152602001600020819055506121c260016000546121cf90919063ffffffff16565b6000819055505050505050565b60008282111515156121dd57fe5b818303905092915050565b602060405190810160405280600081525090565b828054600181600116156101000203166002900490600052602060002090601f016020900481019282601f1061223d57805160ff191683800117855561226b565b8280016001018555821561226b579182015b8281111561226a57825182559160200191906001019061224f565b5b50905061227891906122e8565b5090565b602060405190810160405280600081525090565b8154818355818115116122b7578183600052602060002091820191016122b691906122e8565b5b505050565b8154818355818115116122e3578183600052602060002091820191016122e291906122e8565b5b505050565b61230a91905b808211156123065760008160009055506001016122ee565b5090565b905600a165627a7a72305820d5c9de573a577ce41eb29f78e53976e72404d535bcb98dfab92c99a75392deba0029",
  "source": "pragma solidity ^0.4.19;\nimport 'zeppelin-solidity/contracts/token/ERC721/ERC721Token.sol';\nimport 'zeppelin-solidity/contracts/ownership/Ownable.sol';\nimport './GhostMeta.sol';\nimport './ItemWallet.sol';\n\ncontract CryptoGhosts is ERC721Token, Ownable, GhostMeta, ItemWallet {\n  string constant private tokenName = \"CryptoGhosts\";\n  string constant private tokenSymbol = \"SPOOK\";\n  uint256 private ghostId = 0;\n\n\n  function CreateGhost(address _account, uint _ghostType, string _name) public onlyOwner {\n    ghostId++;\n    _mint(_account, ghostId);\n    ghostNames[ghostId] = _name;\n    bodyType[ghostId] = _ghostType;\n    equippedItems[ghostId] = Items(0, 0, 0, 0, 0);\n  }\n\n  function CreateGhosts(address _account, uint _ghostType, string _name, uint256 _amount) public onlyOwner {\n    for(uint i = 0; i < _amount; i++) {\n      ghostId++;\n      _mint(_account, ghostId);\n      ghostNames[ghostId] = _name;\n      bodyType[ghostId] = _ghostType;\n      equippedItems[ghostId] = Items(0, 0, 0, 0, 0);\n    }\n  }\n\n  function ghostsOf(address _account) public view returns (uint256[], uint[]) {\n    uint256[] memory tkns = tokensOf(_account);\n    uint[] memory bTypes = new uint[](tkns.length);\n    for (uint i = 0; i < tkns.length; i++) {\n      bTypes[i] = getBodyType(tkns[i]);\n    }\n    return (tkns, bTypes);\n  }\n\n  function name() pure public returns (string) {\n    return tokenName;\n  }\n}\n\n",
  "sourcePath": "/Users/taylor/dev/cryptoghosts/blockchain/contracts/CryptoGhosts.sol",
  "compiler": {
    "name": "solc",
    "version": "0.4.19+commit.c4cbbb05.Emscripten.clang"
  },
  "schemaVersion": "1.0.1",
  "updatedAt": "2018-02-24T05:41:04.168Z"
}