{
  "contractName": "CryptoGhosts",
  "abi": [
    {
      "constant": true,
      "inputs": [
        {
          "name": "_ghostId",
          "type": "uint256"
        }
      ],
      "name": "getHeadItem",
      "outputs": [
        {
          "name": "",
          "type": "uint256"
        }
      ],
      "payable": false,
      "stateMutability": "view",
      "type": "function"
    },
    {
      "constant": false,
      "inputs": [
        {
          "name": "_ghostId",
          "type": "uint256"
        },
        {
          "name": "_item",
          "type": "uint256"
        }
      ],
      "name": "EquipHeadItem",
      "outputs": [],
      "payable": false,
      "stateMutability": "nonpayable",
      "type": "function"
    },
    {
      "constant": false,
      "inputs": [
        {
          "name": "_to",
          "type": "address"
        },
        {
          "name": "_tokenId",
          "type": "uint256"
        }
      ],
      "name": "approve",
      "outputs": [],
      "payable": false,
      "stateMutability": "nonpayable",
      "type": "function"
    },
    {
      "constant": true,
      "inputs": [],
      "name": "totalSupply",
      "outputs": [
        {
          "name": "",
          "type": "uint256"
        }
      ],
      "payable": false,
      "stateMutability": "view",
      "type": "function"
    },
    {
      "constant": true,
      "inputs": [
        {
          "name": "_tokenId",
          "type": "uint256"
        }
      ],
      "name": "approvedFor",
      "outputs": [
        {
          "name": "",
          "type": "address"
        }
      ],
      "payable": false,
      "stateMutability": "view",
      "type": "function"
    },
    {
      "constant": true,
      "inputs": [
        {
          "name": "_ghostId",
          "type": "uint256"
        }
      ],
      "name": "getRightHandItem",
      "outputs": [
        {
          "name": "",
          "type": "uint256"
        }
      ],
      "payable": false,
      "stateMutability": "view",
      "type": "function"
    },
    {
      "constant": true,
      "inputs": [
        {
          "name": "_account",
          "type": "address"
        }
      ],
      "name": "itemTypesOf",
      "outputs": [
        {
          "name": "",
          "type": "uint256[]"
        }
      ],
      "payable": false,
      "stateMutability": "view",
      "type": "function"
    },
    {
      "constant": true,
      "inputs": [
        {
          "name": "_owner",
          "type": "address"
        }
      ],
      "name": "tokensOf",
      "outputs": [
        {
          "name": "",
          "type": "uint256[]"
        }
      ],
      "payable": false,
      "stateMutability": "view",
      "type": "function"
    },
    {
      "constant": true,
      "inputs": [
        {
          "name": "_owner",
          "type": "address"
        }
      ],
      "name": "itemAmountOf",
      "outputs": [
        {
          "name": "",
          "type": "uint256"
        }
      ],
      "payable": false,
      "stateMutability": "view",
      "type": "function"
    },
    {
      "constant": true,
      "inputs": [
        {
          "name": "_tokenId",
          "type": "uint256"
        }
      ],
      "name": "ownerOf",
      "outputs": [
        {
          "name": "",
          "type": "address"
        }
      ],
      "payable": false,
      "stateMutability": "view",
      "type": "function"
    },
    {
      "constant": true,
      "inputs": [
        {
          "name": "_ghostId",
          "type": "uint256"
        }
      ],
      "name": "getFaceItem",
      "outputs": [
        {
          "name": "",
          "type": "uint256"
        }
      ],
      "payable": false,
      "stateMutability": "view",
      "type": "function"
    },
    {
      "constant": true,
      "inputs": [
        {
          "name": "_owner",
          "type": "address"
        }
      ],
      "name": "balanceOf",
      "outputs": [
        {
          "name": "",
          "type": "uint256"
        }
      ],
      "payable": false,
      "stateMutability": "view",
      "type": "function"
    },
    {
      "constant": true,
      "inputs": [
        {
          "name": "_account",
          "type": "address"
        }
      ],
      "name": "itemsOf",
      "outputs": [
        {
          "name": "",
          "type": "uint256[]"
        }
      ],
      "payable": false,
      "stateMutability": "view",
      "type": "function"
    },
    {
      "constant": true,
      "inputs": [
        {
          "name": "_ghostId",
          "type": "uint256"
        }
      ],
      "name": "getChestItem",
      "outputs": [
        {
          "name": "",
          "type": "uint256"
        }
      ],
      "payable": false,
      "stateMutability": "view",
      "type": "function"
    },
    {
      "constant": true,
      "inputs": [
        {
          "name": "_ghostId",
          "type": "uint256"
        }
      ],
      "name": "getLeftHandItem",
      "outputs": [
        {
          "name": "",
          "type": "uint256"
        }
      ],
      "payable": false,
      "stateMutability": "view",
      "type": "function"
    },
    {
      "constant": true,
      "inputs": [],
      "name": "owner",
      "outputs": [
        {
          "name": "",
          "type": "address"
        }
      ],
      "payable": false,
      "stateMutability": "view",
      "type": "function"
    },
    {
      "constant": true,
      "inputs": [
        {
          "name": "_ghostId",
          "type": "uint256"
        }
      ],
      "name": "getGhostName",
      "outputs": [
        {
          "name": "",
          "type": "string"
        }
      ],
      "payable": false,
      "stateMutability": "view",
      "type": "function"
    },
    {
      "constant": false,
      "inputs": [
        {
          "name": "_to",
          "type": "address"
        },
        {
          "name": "_tokenId",
          "type": "uint256"
        }
      ],
      "name": "transfer",
      "outputs": [],
      "payable": false,
      "stateMutability": "nonpayable",
      "type": "function"
    },
    {
      "constant": false,
      "inputs": [
        {
          "name": "_to",
          "type": "address"
        },
        {
          "name": "_itemType",
          "type": "uint256"
        },
        {
          "name": "_amount",
          "type": "uint256"
        }
      ],
      "name": "CreateItems",
      "outputs": [],
      "payable": false,
      "stateMutability": "nonpayable",
      "type": "function"
    },
    {
      "constant": false,
      "inputs": [
        {
          "name": "_tokenId",
          "type": "uint256"
        }
      ],
      "name": "takeOwnership",
      "outputs": [],
      "payable": false,
      "stateMutability": "nonpayable",
      "type": "function"
    },
    {
      "constant": true,
      "inputs": [
        {
          "name": "_ghostId",
          "type": "uint256"
        }
      ],
      "name": "getBodyType",
      "outputs": [
        {
          "name": "",
          "type": "uint256"
        }
      ],
      "payable": false,
      "stateMutability": "view",
      "type": "function"
    },
    {
      "constant": true,
      "inputs": [
        {
          "name": "_itemId",
          "type": "uint256"
        }
      ],
      "name": "getItemType",
      "outputs": [
        {
          "name": "",
          "type": "uint256"
        }
      ],
      "payable": false,
      "stateMutability": "view",
      "type": "function"
    },
    {
      "constant": false,
      "inputs": [
        {
          "name": "_ghostId",
          "type": "uint256"
        },
        {
          "name": "_name",
          "type": "string"
        }
      ],
      "name": "NameGhost",
      "outputs": [],
      "payable": false,
      "stateMutability": "nonpayable",
      "type": "function"
    },
    {
      "constant": true,
      "inputs": [
        {
          "name": "_ghostId",
          "type": "uint256"
        }
      ],
      "name": "getEquippedItems",
      "outputs": [
        {
          "name": "",
          "type": "uint256"
        },
        {
          "name": "",
          "type": "uint256"
        },
        {
          "name": "",
          "type": "uint256"
        },
        {
          "name": "",
          "type": "uint256"
        },
        {
          "name": "",
          "type": "uint256"
        }
      ],
      "payable": false,
      "stateMutability": "view",
      "type": "function"
    },
    {
      "constant": false,
      "inputs": [
        {
          "name": "newOwner",
          "type": "address"
        }
      ],
      "name": "transferOwnership",
      "outputs": [],
      "payable": false,
      "stateMutability": "nonpayable",
      "type": "function"
    },
    {
      "anonymous": false,
      "inputs": [
        {
          "indexed": true,
          "name": "previousOwner",
          "type": "address"
        },
        {
          "indexed": true,
          "name": "newOwner",
          "type": "address"
        }
      ],
      "name": "OwnershipTransferred",
      "type": "event"
    },
    {
      "anonymous": false,
      "inputs": [
        {
          "indexed": true,
          "name": "_from",
          "type": "address"
        },
        {
          "indexed": true,
          "name": "_to",
          "type": "address"
        },
        {
          "indexed": false,
          "name": "_tokenId",
          "type": "uint256"
        }
      ],
      "name": "Transfer",
      "type": "event"
    },
    {
      "anonymous": false,
      "inputs": [
        {
          "indexed": true,
          "name": "_owner",
          "type": "address"
        },
        {
          "indexed": true,
          "name": "_approved",
          "type": "address"
        },
        {
          "indexed": false,
          "name": "_tokenId",
          "type": "uint256"
        }
      ],
      "name": "Approval",
      "type": "event"
    },
    {
      "constant": false,
      "inputs": [
        {
          "name": "_account",
          "type": "address"
        },
        {
          "name": "_ghostType",
          "type": "uint256"
        },
        {
          "name": "_name",
          "type": "string"
        }
      ],
      "name": "CreateGhost",
      "outputs": [],
      "payable": false,
      "stateMutability": "nonpayable",
      "type": "function"
    },
    {
      "constant": false,
      "inputs": [
        {
          "name": "_account",
          "type": "address"
        },
        {
          "name": "_ghostType",
          "type": "uint256"
        },
        {
          "name": "_name",
          "type": "string"
        },
        {
          "name": "_amount",
          "type": "uint256"
        }
      ],
      "name": "CreateGhosts",
      "outputs": [],
      "payable": false,
      "stateMutability": "nonpayable",
      "type": "function"
    },
    {
      "constant": true,
      "inputs": [
        {
          "name": "_account",
          "type": "address"
        }
      ],
      "name": "ghostsOf",
      "outputs": [
        {
          "name": "",
          "type": "uint256[]"
        },
        {
          "name": "",
          "type": "uint256[]"
        }
      ],
      "payable": false,
      "stateMutability": "view",
      "type": "function"
    },
    {
      "constant": true,
      "inputs": [],
      "name": "name",
      "outputs": [
        {
          "name": "",
          "type": "string"
        }
      ],
      "payable": false,
      "stateMutability": "pure",
      "type": "function"
    }
  ],
  "bytecode": "0x606060405260006009556000600f5533600560006101000a81548173ffffffffffffffffffffffffffffffffffffffff021916908373ffffffffffffffffffffffffffffffffffffffff1602179055506123dd8061005e6000396000f300606060405260043610610175576000357c0100000000000000000000000000000000000000000000000000000000900463ffffffff16806306fdde031461017a57806307061522146102085780630746d6f01461023f578063095ea7b31461026b57806318160ddd146102ad57806319922ba6146102d65780632a6dd48f1461035b578063307eb968146103be578063563949d6146103f55780635a3f267214610483578063620fc3c9146105115780636352211e1461055e578063695c86ea146105c157806370a08231146105f85780637231a876146106455780637319ecd7146106d357806381d185991461070a57806385aabd46146107985780638da5cb5b146107cf578063917f17ce1461082457806396a0b205146108c0578063a9059cbb14610996578063ad8125aa146109d8578063b2e6ceeb14610a23578063c0bca5a614610a46578063c19a4ef514610a7d578063dc66251c14610ab4578063e1cb414814610b1a578063f2fde38b14610b6d575b600080fd5b341561018557600080fd5b61018d610ba6565b6040518080602001828103825283818151815260200191508051906020019080838360005b838110156101cd5780820151818401526020810190506101b2565b50505050905090810190601f1680156101fa5780820380516001836020036101000a031916815260200191505b509250505060405180910390f35b341561021357600080fd5b6102296004808035906020019091905050610be9565b6040518082815260200191505060405180910390f35b341561024a57600080fd5b6102696004808035906020019091908035906020019091905050610c09565b005b341561027657600080fd5b6102ab600480803573ffffffffffffffffffffffffffffffffffffffff16906020019091908035906020019091905050610c6c565b005b34156102b857600080fd5b6102c0610dff565b6040518082815260200191505060405180910390f35b34156102e157600080fd5b610359600480803573ffffffffffffffffffffffffffffffffffffffff1690602001909190803590602001909190803590602001908201803590602001908080601f01602080910402602001604051908101604052809392919081815260200183838082843782019150505050505091905050610e08565b005b341561036657600080fd5b61037c6004808035906020019091905050610f42565b604051808273ffffffffffffffffffffffffffffffffffffffff1673ffffffffffffffffffffffffffffffffffffffff16815260200191505060405180910390f35b34156103c957600080fd5b6103df6004808035906020019091905050610f7f565b6040518082815260200191505060405180910390f35b341561040057600080fd5b61042c600480803573ffffffffffffffffffffffffffffffffffffffff16906020019091905050610f9f565b6040518080602001828103825283818151815260200191508051906020019060200280838360005b8381101561046f578082015181840152602081019050610454565b505050509050019250505060405180910390f35b341561048e57600080fd5b6104ba600480803573ffffffffffffffffffffffffffffffffffffffff16906020019091905050611101565b6040518080602001828103825283818151815260200191508051906020019060200280838360005b838110156104fd5780820151818401526020810190506104e2565b505050509050019250505060405180910390f35b341561051c57600080fd5b610548600480803573ffffffffffffffffffffffffffffffffffffffff1690602001909190505061119e565b6040518082815260200191505060405180910390f35b341561056957600080fd5b61057f60048080359060200190919050506111ea565b604051808273ffffffffffffffffffffffffffffffffffffffff1673ffffffffffffffffffffffffffffffffffffffff16815260200191505060405180910390f35b34156105cc57600080fd5b6105e26004808035906020019091905050611268565b6040518082815260200191505060405180910390f35b341561060357600080fd5b61062f600480803573ffffffffffffffffffffffffffffffffffffffff16906020019091905050611288565b6040518082815260200191505060405180910390f35b341561065057600080fd5b61067c600480803573ffffffffffffffffffffffffffffffffffffffff169060200190919050506112d4565b6040518080602001828103825283818151815260200191508051906020019060200280838360005b838110156106bf5780820151818401526020810190506106a4565b505050509050019250505060405180910390f35b34156106de57600080fd5b6106f46004808035906020019091905050611371565b6040518082815260200191505060405180910390f35b341561071557600080fd5b610796600480803573ffffffffffffffffffffffffffffffffffffffff1690602001909190803590602001909190803590602001908201803590602001908080601f01602080910402602001604051908101604052809392919081815260200183838082843782019150505050505091908035906020019091905050611391565b005b34156107a357600080fd5b6107b960048080359060200190919050506114e9565b6040518082815260200191505060405180910390f35b34156107da57600080fd5b6107e2611509565b604051808273ffffffffffffffffffffffffffffffffffffffff1673ffffffffffffffffffffffffffffffffffffffff16815260200191505060405180910390f35b341561082f57600080fd5b610845600480803590602001909190505061152f565b6040518080602001828103825283818151815260200191508051906020019080838360005b8381101561088557808201518184015260208101905061086a565b50505050905090810190601f1680156108b25780820380516001836020036101000a031916815260200191505b509250505060405180910390f35b34156108cb57600080fd5b6108f7600480803573ffffffffffffffffffffffffffffffffffffffff169060200190919050506115ea565b604051808060200180602001838103835285818151815260200191508051906020019060200280838360005b8381101561093e578082015181840152602081019050610923565b50505050905001838103825284818151815260200191508051906020019060200280838360005b83811015610980578082015181840152602081019050610965565b5050505090500194505050505060405180910390f35b34156109a157600080fd5b6109d6600480803573ffffffffffffffffffffffffffffffffffffffff1690602001909190803590602001909190505061169e565b005b34156109e357600080fd5b610a21600480803573ffffffffffffffffffffffffffffffffffffffff169060200190919080359060200190919080359060200190919050506116f1565b005b3415610a2e57600080fd5b610a44600480803590602001909190505061189a565b005b3415610a5157600080fd5b610a6760048080359060200190919050506118c5565b6040518082815260200191505060405180910390f35b3415610a8857600080fd5b610a9e60048080359060200190919050506118e2565b6040518082815260200191505060405180910390f35b3415610abf57600080fd5b610b18600480803590602001909190803590602001908201803590602001908080601f016020809104026020016040519081016040528093929190818152602001838380828437820191505050505050919050506118ff565b005b3415610b2557600080fd5b610b3b600480803590602001909190505061196f565b604051808681526020018581526020018481526020018381526020018281526020019550505050505060405180910390f35b3415610b7857600080fd5b610ba4600480803573ffffffffffffffffffffffffffffffffffffffff169060200190919050506119fd565b005b610bae61228c565b6040805190810160405280600c81526020017f43727970746f47686f7374730000000000000000000000000000000000000000815250905090565b600060066000838152602001908152602001600020600001549050919050565b813373ffffffffffffffffffffffffffffffffffffffff16610c2a826111ea565b73ffffffffffffffffffffffffffffffffffffffff16141515610c4c57600080fd5b816006600085815260200190815260200160002060000181905550505050565b6000813373ffffffffffffffffffffffffffffffffffffffff16610c8f826111ea565b73ffffffffffffffffffffffffffffffffffffffff16141515610cb157600080fd5b610cba836111ea565b91508173ffffffffffffffffffffffffffffffffffffffff168473ffffffffffffffffffffffffffffffffffffffff1614151515610cf757600080fd5b6000610d0284610f42565b73ffffffffffffffffffffffffffffffffffffffff16141580610d3c575060008473ffffffffffffffffffffffffffffffffffffffff1614155b15610df957836002600085815260200190815260200160002060006101000a81548173ffffffffffffffffffffffffffffffffffffffff021916908373ffffffffffffffffffffffffffffffffffffffff1602179055508373ffffffffffffffffffffffffffffffffffffffff168273ffffffffffffffffffffffffffffffffffffffff167f8c5be1e5ebec7d5bd14f71427d1e84f3dd0314c0f7b2291e5b200ac8c7c3b925856040518082815260200191505060405180910390a35b50505050565b60008054905090565b600560009054906101000a900473ffffffffffffffffffffffffffffffffffffffff1673ffffffffffffffffffffffffffffffffffffffff163373ffffffffffffffffffffffffffffffffffffffff16141515610e6457600080fd5b600f60008154809291906001019190505550610e8283600f54611b55565b8060076000600f5481526020019081526020016000209080519060200190610eab9291906122a0565b508160086000600f5481526020019081526020016000208190555060a06040519081016040528060008152602001600081526020016000815260200160008152602001600081525060066000600f5481526020019081526020016000206000820151816000015560208201518160010155604082015181600201556060820151816003015560808201518160040155905050505050565b60006002600083815260200190815260200160002060009054906101000a900473ffffffffffffffffffffffffffffffffffffffff169050919050565b600060066000838152602001908152602001600020600401549050919050565b610fa7612320565b610faf612320565b6000600c60008573ffffffffffffffffffffffffffffffffffffffff1673ffffffffffffffffffffffffffffffffffffffff168152602001908152602001600020805490506040518059106110015750595b90808252806020026020018201604052509150600090505b600c60008573ffffffffffffffffffffffffffffffffffffffff1673ffffffffffffffffffffffffffffffffffffffff168152602001908152602001600020805490508110156110f757600e6000600c60008773ffffffffffffffffffffffffffffffffffffffff1673ffffffffffffffffffffffffffffffffffffffff168152602001908152602001600020838154811015156110b357fe5b90600052602060002090015481526020019081526020016000205482828151811015156110dc57fe5b90602001906020020181815250508080600101915050611019565b8192505050919050565b611109612320565b600360008373ffffffffffffffffffffffffffffffffffffffff1673ffffffffffffffffffffffffffffffffffffffff16815260200190815260200160002080548060200260200160405190810160405280929190818152602001828054801561119257602002820191906000526020600020905b81548152602001906001019080831161117e575b50505050509050919050565b6000600c60008373ffffffffffffffffffffffffffffffffffffffff1673ffffffffffffffffffffffffffffffffffffffff168152602001908152602001600020805490509050919050565b6000806001600084815260200190815260200160002060009054906101000a900473ffffffffffffffffffffffffffffffffffffffff169050600073ffffffffffffffffffffffffffffffffffffffff168173ffffffffffffffffffffffffffffffffffffffff161415151561125f57600080fd5b80915050919050565b600060066000838152602001908152602001600020600201549050919050565b6000600360008373ffffffffffffffffffffffffffffffffffffffff1673ffffffffffffffffffffffffffffffffffffffff168152602001908152602001600020805490509050919050565b6112dc612320565b600c60008373ffffffffffffffffffffffffffffffffffffffff1673ffffffffffffffffffffffffffffffffffffffff16815260200190815260200160002080548060200260200160405190810160405280929190818152602001828054801561136557602002820191906000526020600020905b815481526020019060010190808311611351575b50505050509050919050565b600060066000838152602001908152602001600020600101549050919050565b6000600560009054906101000a900473ffffffffffffffffffffffffffffffffffffffff1673ffffffffffffffffffffffffffffffffffffffff163373ffffffffffffffffffffffffffffffffffffffff161415156113ef57600080fd5b600090505b818110156114e257600f6000815480929190600101919050555061141a85600f54611b55565b8260076000600f54815260200190815260200160002090805190602001906114439291906122a0565b508360086000600f5481526020019081526020016000208190555060a06040519081016040528060008152602001600081526020016000815260200160008152602001600081525060066000600f548152602001908152602001600020600082015181600001556020820151816001015560408201518160020155606082015181600301556080820151816004015590505080806001019150506113f4565b5050505050565b600060066000838152602001908152602001600020600301549050919050565b600560009054906101000a900473ffffffffffffffffffffffffffffffffffffffff1681565b61153761228c565b600760008381526020019081526020016000208054600181600116156101000203166002900480601f0160208091040260200160405190810160405280929190818152602001828054600181600116156101000203166002900480156115de5780601f106115b3576101008083540402835291602001916115de565b820191906000526020600020905b8154815290600101906020018083116115c157829003601f168201915b50505050509050919050565b6115f2612320565b6115fa612320565b611602612320565b61160a612320565b600061161586611101565b925082516040518059106116265750595b90808252806020026020018201604052509150600090505b825181101561169057611667838281518110151561165857fe5b906020019060200201516118c5565b828281518110151561167557fe5b9060200190602002018181525050808060010191505061163e565b828294509450505050915091565b803373ffffffffffffffffffffffffffffffffffffffff166116bf826111ea565b73ffffffffffffffffffffffffffffffffffffffff161415156116e157600080fd5b6116ec338484611bef565b505050565b600080600560009054906101000a900473ffffffffffffffffffffffffffffffffffffffff1673ffffffffffffffffffffffffffffffffffffffff163373ffffffffffffffffffffffffffffffffffffffff1614151561175057600080fd5b600091505b82821015611893576009600081548092919060010191905055506117788561119e565b905080600d600060095481526020019081526020016000208190555083600e600060095481526020019081526020016000208190555084600b6000600954815260200190815260200160002060006101000a81548173ffffffffffffffffffffffffffffffffffffffff021916908373ffffffffffffffffffffffffffffffffffffffff160217905550600c60008673ffffffffffffffffffffffffffffffffffffffff1673ffffffffffffffffffffffffffffffffffffffff16815260200190815260200160002080548060010182816118539190612334565b91600052602060002090016000600954909190915055506118806001600a54611d3890919063ffffffff16565b600a819055508180600101925050611755565b5050505050565b6118a43382611d56565b15156118af57600080fd5b6118c26118bb826111ea565b3383611bef565b50565b600060086000838152602001908152602001600020549050919050565b6000600e6000838152602001908152602001600020549050919050565b813373ffffffffffffffffffffffffffffffffffffffff16611920826111ea565b73ffffffffffffffffffffffffffffffffffffffff1614151561194257600080fd5b816007600085815260200190815260200160002090805190602001906119699291906122a0565b50505050565b6000806000806000600660008781526020019081526020016000206000015460066000888152602001908152602001600020600101546006600089815260200190815260200160002060020154600660008a815260200190815260200160002060030154600660008b8152602001908152602001600020600401549450945094509450945091939590929450565b600560009054906101000a900473ffffffffffffffffffffffffffffffffffffffff1673ffffffffffffffffffffffffffffffffffffffff163373ffffffffffffffffffffffffffffffffffffffff16141515611a5957600080fd5b600073ffffffffffffffffffffffffffffffffffffffff168173ffffffffffffffffffffffffffffffffffffffff1614151515611a9557600080fd5b8073ffffffffffffffffffffffffffffffffffffffff16600560009054906101000a900473ffffffffffffffffffffffffffffffffffffffff1673ffffffffffffffffffffffffffffffffffffffff167f8be0079c531659141344cd1fd0a4f28419497f9722a3daafe3b4186f6b6457e060405160405180910390a380600560006101000a81548173ffffffffffffffffffffffffffffffffffffffff021916908373ffffffffffffffffffffffffffffffffffffffff16021790555050565b600073ffffffffffffffffffffffffffffffffffffffff168273ffffffffffffffffffffffffffffffffffffffff1614151515611b9157600080fd5b611b9b8282611d97565b8173ffffffffffffffffffffffffffffffffffffffff1660007fddf252ad1be2c89b69c2b068fc378daa952ba7f163c4a11628f55a4df523b3ef836040518082815260200191505060405180910390a35050565b600073ffffffffffffffffffffffffffffffffffffffff168273ffffffffffffffffffffffffffffffffffffffff1614151515611c2b57600080fd5b611c34816111ea565b73ffffffffffffffffffffffffffffffffffffffff168273ffffffffffffffffffffffffffffffffffffffff1614151515611c6e57600080fd5b8273ffffffffffffffffffffffffffffffffffffffff16611c8e826111ea565b73ffffffffffffffffffffffffffffffffffffffff16141515611cb057600080fd5b611cba8382611f02565b611cc48382611feb565b611cce8282611d97565b8173ffffffffffffffffffffffffffffffffffffffff168373ffffffffffffffffffffffffffffffffffffffff167fddf252ad1be2c89b69c2b068fc378daa952ba7f163c4a11628f55a4df523b3ef836040518082815260200191505060405180910390a3505050565b6000808284019050838110151515611d4c57fe5b8091505092915050565b60008273ffffffffffffffffffffffffffffffffffffffff16611d7883610f42565b73ffffffffffffffffffffffffffffffffffffffff1614905092915050565b60008073ffffffffffffffffffffffffffffffffffffffff166001600084815260200190815260200160002060009054906101000a900473ffffffffffffffffffffffffffffffffffffffff1673ffffffffffffffffffffffffffffffffffffffff16141515611e0657600080fd5b826001600084815260200190815260200160002060006101000a81548173ffffffffffffffffffffffffffffffffffffffff021916908373ffffffffffffffffffffffffffffffffffffffff160217905550611e6183611288565b9050600360008473ffffffffffffffffffffffffffffffffffffffff1673ffffffffffffffffffffffffffffffffffffffff1681526020019081526020016000208054806001018281611eb49190612334565b916000526020600020900160008490919091505550806004600084815260200190815260200160002081905550611ef76001600054611d3890919063ffffffff16565b600081905550505050565b8173ffffffffffffffffffffffffffffffffffffffff16611f22826111ea565b73ffffffffffffffffffffffffffffffffffffffff16141515611f4457600080fd5b60006002600083815260200190815260200160002060006101000a81548173ffffffffffffffffffffffffffffffffffffffff021916908373ffffffffffffffffffffffffffffffffffffffff16021790555060008273ffffffffffffffffffffffffffffffffffffffff167f8c5be1e5ebec7d5bd14f71427d1e84f3dd0314c0f7b2291e5b200ac8c7c3b925836040518082815260200191505060405180910390a35050565b60008060008473ffffffffffffffffffffffffffffffffffffffff16612010856111ea565b73ffffffffffffffffffffffffffffffffffffffff1614151561203257600080fd5b60046000858152602001908152602001600020549250612064600161205687611288565b61227390919063ffffffff16565b9150600360008673ffffffffffffffffffffffffffffffffffffffff1673ffffffffffffffffffffffffffffffffffffffff168152602001908152602001600020828154811015156120b257fe5b906000526020600020900154905060006001600086815260200190815260200160002060006101000a81548173ffffffffffffffffffffffffffffffffffffffff021916908373ffffffffffffffffffffffffffffffffffffffff16021790555080600360008773ffffffffffffffffffffffffffffffffffffffff1673ffffffffffffffffffffffffffffffffffffffff1681526020019081526020016000208481548110151561216057fe5b9060005260206000209001819055506000600360008773ffffffffffffffffffffffffffffffffffffffff1673ffffffffffffffffffffffffffffffffffffffff168152602001908152602001600020838154811015156121bd57fe5b906000526020600020900181905550600360008673ffffffffffffffffffffffffffffffffffffffff1673ffffffffffffffffffffffffffffffffffffffff16815260200190815260200160002080548091906001900361221e9190612360565b5060006004600086815260200190815260200160002081905550826004600083815260200190815260200160002081905550612266600160005461227390919063ffffffff16565b6000819055505050505050565b600082821115151561228157fe5b818303905092915050565b602060405190810160405280600081525090565b828054600181600116156101000203166002900490600052602060002090601f016020900481019282601f106122e157805160ff191683800117855561230f565b8280016001018555821561230f579182015b8281111561230e5782518255916020019190600101906122f3565b5b50905061231c919061238c565b5090565b602060405190810160405280600081525090565b81548183558181151161235b5781836000526020600020918201910161235a919061238c565b5b505050565b81548183558181151161238757818360005260206000209182019101612386919061238c565b5b505050565b6123ae91905b808211156123aa576000816000905550600101612392565b5090565b905600a165627a7a72305820c0f7fcd63e5bc5e17bccc257ab960993e36936af01156d2361447d212d0009700029",
  "source": "pragma solidity ^0.4.19;\nimport 'zeppelin-solidity/contracts/token/ERC721/ERC721Token.sol';\nimport 'zeppelin-solidity/contracts/ownership/Ownable.sol';\nimport './GhostMeta.sol';\nimport './ItemWallet.sol';\n\ncontract CryptoGhosts is ERC721Token, Ownable, GhostMeta, ItemWallet {\n  string constant private tokenName = \"CryptoGhosts\";\n  string constant private tokenSymbol = \"SPOOK\";\n  uint256 private ghostId = 0;\n\n\n  function CreateGhost(address _account, uint _ghostType, string _name) public onlyOwner {\n    ghostId++;\n    _mint(_account, ghostId);\n    ghostNames[ghostId] = _name;\n    bodyType[ghostId] = _ghostType;\n    equippedItems[ghostId] = Items(0, 0, 0, 0, 0);\n  }\n\n  function CreateGhosts(address _account, uint _ghostType, string _name, uint256 _amount) public onlyOwner {\n    for(uint i = 0; i < _amount; i++) {\n      ghostId++;\n      _mint(_account, ghostId);\n      ghostNames[ghostId] = _name;\n      bodyType[ghostId] = _ghostType;\n      equippedItems[ghostId] = Items(0, 0, 0, 0, 0);\n    }\n  }\n\n  function ghostsOf(address _account) public view returns (uint256[], uint[]) {\n    uint256[] memory tkns = tokensOf(_account);\n    uint[] memory bTypes = new uint[](tkns.length);\n    for (uint i = 0; i < tkns.length; i++) {\n      bTypes[i] = getBodyType(tkns[i]);\n    }\n    return (tkns, bTypes);\n  }\n\n  function name() pure public returns (string) {\n    return tokenName;\n  }\n}\n\n",
  "sourcePath": "/Users/taylor/dev/cryptoghosts/blockchain/contracts/CryptoGhosts.sol",
  "compiler": {
    "name": "solc",
    "version": "0.4.19+commit.c4cbbb05.Emscripten.clang"
  },
  "schemaVersion": "1.0.1",
  "updatedAt": "2018-02-24T05:54:41.274Z"
}