{
  "contractName": "CryptoGhosts",
  "abi": [
    {
      "constant": true,
      "inputs": [
        {
          "name": "_ghostId",
          "type": "uint256"
        }
      ],
      "name": "getHeadItem",
      "outputs": [
        {
          "name": "",
          "type": "uint256"
        }
      ],
      "payable": false,
      "stateMutability": "view",
      "type": "function"
    },
    {
      "constant": false,
      "inputs": [
        {
          "name": "_to",
          "type": "address"
        },
        {
          "name": "_tokenId",
          "type": "uint256"
        }
      ],
      "name": "approve",
      "outputs": [],
      "payable": false,
      "stateMutability": "nonpayable",
      "type": "function"
    },
    {
      "constant": true,
      "inputs": [],
      "name": "totalSupply",
      "outputs": [
        {
          "name": "",
          "type": "uint256"
        }
      ],
      "payable": false,
      "stateMutability": "view",
      "type": "function"
    },
    {
      "constant": true,
      "inputs": [
        {
          "name": "_tokenId",
          "type": "uint256"
        }
      ],
      "name": "approvedFor",
      "outputs": [
        {
          "name": "",
          "type": "address"
        }
      ],
      "payable": false,
      "stateMutability": "view",
      "type": "function"
    },
    {
      "constant": true,
      "inputs": [
        {
          "name": "_ghostId",
          "type": "uint256"
        }
      ],
      "name": "getRightHandItem",
      "outputs": [
        {
          "name": "",
          "type": "uint256"
        }
      ],
      "payable": false,
      "stateMutability": "view",
      "type": "function"
    },
    {
      "constant": true,
      "inputs": [
        {
          "name": "_owner",
          "type": "address"
        }
      ],
      "name": "tokensOf",
      "outputs": [
        {
          "name": "",
          "type": "uint256[]"
        }
      ],
      "payable": false,
      "stateMutability": "view",
      "type": "function"
    },
    {
      "constant": true,
      "inputs": [
        {
          "name": "_tokenId",
          "type": "uint256"
        }
      ],
      "name": "ownerOf",
      "outputs": [
        {
          "name": "",
          "type": "address"
        }
      ],
      "payable": false,
      "stateMutability": "view",
      "type": "function"
    },
    {
      "constant": true,
      "inputs": [
        {
          "name": "_ghostId",
          "type": "uint256"
        }
      ],
      "name": "getFaceItem",
      "outputs": [
        {
          "name": "",
          "type": "uint256"
        }
      ],
      "payable": false,
      "stateMutability": "view",
      "type": "function"
    },
    {
      "constant": true,
      "inputs": [
        {
          "name": "_owner",
          "type": "address"
        }
      ],
      "name": "balanceOf",
      "outputs": [
        {
          "name": "",
          "type": "uint256"
        }
      ],
      "payable": false,
      "stateMutability": "view",
      "type": "function"
    },
    {
      "constant": true,
      "inputs": [
        {
          "name": "_ghostId",
          "type": "uint256"
        }
      ],
      "name": "getChestItem",
      "outputs": [
        {
          "name": "",
          "type": "uint256"
        }
      ],
      "payable": false,
      "stateMutability": "view",
      "type": "function"
    },
    {
      "constant": true,
      "inputs": [
        {
          "name": "_ghostId",
          "type": "uint256"
        }
      ],
      "name": "getLeftHandItem",
      "outputs": [
        {
          "name": "",
          "type": "uint256"
        }
      ],
      "payable": false,
      "stateMutability": "view",
      "type": "function"
    },
    {
      "constant": true,
      "inputs": [],
      "name": "owner",
      "outputs": [
        {
          "name": "",
          "type": "address"
        }
      ],
      "payable": false,
      "stateMutability": "view",
      "type": "function"
    },
    {
      "constant": true,
      "inputs": [
        {
          "name": "_ghostId",
          "type": "uint256"
        }
      ],
      "name": "getGhostName",
      "outputs": [
        {
          "name": "",
          "type": "string"
        }
      ],
      "payable": false,
      "stateMutability": "view",
      "type": "function"
    },
    {
      "constant": false,
      "inputs": [
        {
          "name": "_to",
          "type": "address"
        },
        {
          "name": "_tokenId",
          "type": "uint256"
        }
      ],
      "name": "transfer",
      "outputs": [],
      "payable": false,
      "stateMutability": "nonpayable",
      "type": "function"
    },
    {
      "constant": false,
      "inputs": [
        {
          "name": "_tokenId",
          "type": "uint256"
        }
      ],
      "name": "takeOwnership",
      "outputs": [],
      "payable": false,
      "stateMutability": "nonpayable",
      "type": "function"
    },
    {
      "constant": true,
      "inputs": [
        {
          "name": "_ghostId",
          "type": "uint256"
        }
      ],
      "name": "getBodyType",
      "outputs": [
        {
          "name": "",
          "type": "uint256"
        }
      ],
      "payable": false,
      "stateMutability": "view",
      "type": "function"
    },
    {
      "constant": false,
      "inputs": [
        {
          "name": "_ghostId",
          "type": "uint256"
        },
        {
          "name": "name",
          "type": "string"
        }
      ],
      "name": "NameGhost",
      "outputs": [],
      "payable": false,
      "stateMutability": "nonpayable",
      "type": "function"
    },
    {
      "constant": true,
      "inputs": [
        {
          "name": "_ghostId",
          "type": "uint256"
        }
      ],
      "name": "getEquippedItems",
      "outputs": [
        {
          "name": "",
          "type": "uint256"
        },
        {
          "name": "",
          "type": "uint256"
        },
        {
          "name": "",
          "type": "uint256"
        },
        {
          "name": "",
          "type": "uint256"
        },
        {
          "name": "",
          "type": "uint256"
        }
      ],
      "payable": false,
      "stateMutability": "view",
      "type": "function"
    },
    {
      "constant": false,
      "inputs": [
        {
          "name": "newOwner",
          "type": "address"
        }
      ],
      "name": "transferOwnership",
      "outputs": [],
      "payable": false,
      "stateMutability": "nonpayable",
      "type": "function"
    },
    {
      "anonymous": false,
      "inputs": [
        {
          "indexed": true,
          "name": "previousOwner",
          "type": "address"
        },
        {
          "indexed": true,
          "name": "newOwner",
          "type": "address"
        }
      ],
      "name": "OwnershipTransferred",
      "type": "event"
    },
    {
      "anonymous": false,
      "inputs": [
        {
          "indexed": true,
          "name": "_from",
          "type": "address"
        },
        {
          "indexed": true,
          "name": "_to",
          "type": "address"
        },
        {
          "indexed": false,
          "name": "_tokenId",
          "type": "uint256"
        }
      ],
      "name": "Transfer",
      "type": "event"
    },
    {
      "anonymous": false,
      "inputs": [
        {
          "indexed": true,
          "name": "_owner",
          "type": "address"
        },
        {
          "indexed": true,
          "name": "_approved",
          "type": "address"
        },
        {
          "indexed": false,
          "name": "_tokenId",
          "type": "uint256"
        }
      ],
      "name": "Approval",
      "type": "event"
    },
    {
      "constant": false,
      "inputs": [
        {
          "name": "account",
          "type": "address"
        },
        {
          "name": "amount",
          "type": "uint256"
        },
        {
          "name": "ghostType",
          "type": "uint256"
        }
      ],
      "name": "CreateGhosts",
      "outputs": [],
      "payable": false,
      "stateMutability": "nonpayable",
      "type": "function"
    },
    {
      "constant": false,
      "inputs": [
        {
          "name": "amount",
          "type": "uint256"
        },
        {
          "name": "ghostType",
          "type": "uint256"
        }
      ],
      "name": "CreateGhosts",
      "outputs": [],
      "payable": false,
      "stateMutability": "nonpayable",
      "type": "function"
    },
    {
      "constant": false,
      "inputs": [
        {
          "name": "amount",
          "type": "uint256"
        },
        {
          "name": "itemType",
          "type": "uint256"
        }
      ],
      "name": "CreateItems",
      "outputs": [],
      "payable": false,
      "stateMutability": "nonpayable",
      "type": "function"
    },
    {
      "constant": true,
      "inputs": [],
      "name": "getGhosts",
      "outputs": [
        {
          "name": "",
          "type": "uint256[]"
        },
        {
          "name": "",
          "type": "uint256[]"
        }
      ],
      "payable": false,
      "stateMutability": "view",
      "type": "function"
    },
    {
      "constant": true,
      "inputs": [],
      "name": "name",
      "outputs": [
        {
          "name": "",
          "type": "string"
        }
      ],
      "payable": false,
      "stateMutability": "pure",
      "type": "function"
    }
  ],
  "bytecode": "0x606060405260016009556001600a5533600560006101000a81548173ffffffffffffffffffffffffffffffffffffffff021916908373ffffffffffffffffffffffffffffffffffffffff160217905550611d768061005e6000396000f30060606040526004361061013e576000357c0100000000000000000000000000000000000000000000000000000000900463ffffffff16806306fdde031461014357806307061522146101d1578063095ea7b31461020857806318160ddd1461024a5780632a6dd48f14610273578063307eb968146102d65780635576e7b61461030d5780635a3f2672146103bf5780636352211e1461044d578063695c86ea146104b057806370a08231146104e75780637319ecd71461053457806385aabd461461056b5780638da5cb5b146105a2578063917f17ce146105f7578063a9059cbb14610693578063b2e6ceeb146106d5578063b3cdc288146106f8578063c0bca5a614610743578063dc66251c1461077a578063e1cb4148146107e0578063e705406c14610833578063f2fde38b1461085f578063f3cd949b14610898575b600080fd5b341561014e57600080fd5b6101566108c4565b6040518080602001828103825283818151815260200191508051906020019080838360005b8381101561019657808201518184015260208101905061017b565b50505050905090810190601f1680156101c35780820380516001836020036101000a031916815260200191505b509250505060405180910390f35b34156101dc57600080fd5b6101f26004808035906020019091905050610907565b6040518082815260200191505060405180910390f35b341561021357600080fd5b610248600480803573ffffffffffffffffffffffffffffffffffffffff16906020019091908035906020019091905050610927565b005b341561025557600080fd5b61025d610aba565b6040518082815260200191505060405180910390f35b341561027e57600080fd5b6102946004808035906020019091905050610ac3565b604051808273ffffffffffffffffffffffffffffffffffffffff1673ffffffffffffffffffffffffffffffffffffffff16815260200191505060405180910390f35b34156102e157600080fd5b6102f76004808035906020019091905050610b00565b6040518082815260200191505060405180910390f35b341561031857600080fd5b610320610b20565b604051808060200180602001838103835285818151815260200191508051906020019060200280838360005b8381101561036757808201518184015260208101905061034c565b50505050905001838103825284818151815260200191508051906020019060200280838360005b838110156103a957808201518184015260208101905061038e565b5050505090500194505050505060405180910390f35b34156103ca57600080fd5b6103f6600480803573ffffffffffffffffffffffffffffffffffffffff16906020019091905050610bd3565b6040518080602001828103825283818151815260200191508051906020019060200280838360005b8381101561043957808201518184015260208101905061041e565b505050509050019250505060405180910390f35b341561045857600080fd5b61046e6004808035906020019091905050610c70565b604051808273ffffffffffffffffffffffffffffffffffffffff1673ffffffffffffffffffffffffffffffffffffffff16815260200191505060405180910390f35b34156104bb57600080fd5b6104d16004808035906020019091905050610cee565b6040518082815260200191505060405180910390f35b34156104f257600080fd5b61051e600480803573ffffffffffffffffffffffffffffffffffffffff16906020019091905050610d0e565b6040518082815260200191505060405180910390f35b341561053f57600080fd5b6105556004808035906020019091905050610d5a565b6040518082815260200191505060405180910390f35b341561057657600080fd5b61058c6004808035906020019091905050610d7a565b6040518082815260200191505060405180910390f35b34156105ad57600080fd5b6105b5610d9a565b604051808273ffffffffffffffffffffffffffffffffffffffff1673ffffffffffffffffffffffffffffffffffffffff16815260200191505060405180910390f35b341561060257600080fd5b6106186004808035906020019091905050610dc0565b6040518080602001828103825283818151815260200191508051906020019080838360005b8381101561065857808201518184015260208101905061063d565b50505050905090810190601f1680156106855780820380516001836020036101000a031916815260200191505b509250505060405180910390f35b341561069e57600080fd5b6106d3600480803573ffffffffffffffffffffffffffffffffffffffff16906020019091908035906020019091905050610e7b565b005b34156106e057600080fd5b6106f66004808035906020019091905050610ece565b005b341561070357600080fd5b610741600480803573ffffffffffffffffffffffffffffffffffffffff16906020019091908035906020019091908035906020019091905050610ef9565b005b341561074e57600080fd5b6107646004808035906020019091905050611060565b6040518082815260200191505060405180910390f35b341561078557600080fd5b6107de600480803590602001909190803590602001908201803590602001908080601f0160208091040260200160405190810160405280939291908181526020018383808284378201915050505050509190505061107d565b005b34156107eb57600080fd5b61080160048080359060200190919050506110ed565b604051808681526020018581526020018481526020018381526020018281526020019550505050505060405180910390f35b341561083e57600080fd5b61085d600480803590602001909190803590602001909190505061117b565b005b341561086a57600080fd5b610896600480803573ffffffffffffffffffffffffffffffffffffffff169060200190919050506112e1565b005b34156108a357600080fd5b6108c26004808035906020019091908035906020019091905050611439565b005b6108cc611c25565b6040805190810160405280600c81526020017f43727970746f47686f7374730000000000000000000000000000000000000000815250905090565b600060066000838152602001908152602001600020600001549050919050565b6000813373ffffffffffffffffffffffffffffffffffffffff1661094a82610c70565b73ffffffffffffffffffffffffffffffffffffffff1614151561096c57600080fd5b61097583610c70565b91508173ffffffffffffffffffffffffffffffffffffffff168473ffffffffffffffffffffffffffffffffffffffff16141515156109b257600080fd5b60006109bd84610ac3565b73ffffffffffffffffffffffffffffffffffffffff161415806109f7575060008473ffffffffffffffffffffffffffffffffffffffff1614155b15610ab457836002600085815260200190815260200160002060006101000a81548173ffffffffffffffffffffffffffffffffffffffff021916908373ffffffffffffffffffffffffffffffffffffffff1602179055508373ffffffffffffffffffffffffffffffffffffffff168273ffffffffffffffffffffffffffffffffffffffff167f8c5be1e5ebec7d5bd14f71427d1e84f3dd0314c0f7b2291e5b200ac8c7c3b925856040518082815260200191505060405180910390a35b50505050565b60008054905090565b60006002600083815260200190815260200160002060009054906101000a900473ffffffffffffffffffffffffffffffffffffffff169050919050565b600060066000838152602001908152602001600020600401549050919050565b610b28611c39565b610b30611c39565b610b38611c39565b610b40611c39565b6000610b4b33610bd3565b92508251604051805910610b5c5750595b90808252806020026020018201604052509150600090505b8251811015610bc657610b9d8382815181101515610b8e57fe5b90602001906020020151611060565b8282815181101515610bab57fe5b90602001906020020181815250508080600101915050610b74565b8282945094505050509091565b610bdb611c39565b600360008373ffffffffffffffffffffffffffffffffffffffff1673ffffffffffffffffffffffffffffffffffffffff168152602001908152602001600020805480602002602001604051908101604052809291908181526020018280548015610c6457602002820191906000526020600020905b815481526020019060010190808311610c50575b50505050509050919050565b6000806001600084815260200190815260200160002060009054906101000a900473ffffffffffffffffffffffffffffffffffffffff169050600073ffffffffffffffffffffffffffffffffffffffff168173ffffffffffffffffffffffffffffffffffffffff1614151515610ce557600080fd5b80915050919050565b600060066000838152602001908152602001600020600201549050919050565b6000600360008373ffffffffffffffffffffffffffffffffffffffff1673ffffffffffffffffffffffffffffffffffffffff168152602001908152602001600020805490509050919050565b600060066000838152602001908152602001600020600101549050919050565b600060066000838152602001908152602001600020600301549050919050565b600560009054906101000a900473ffffffffffffffffffffffffffffffffffffffff1681565b610dc8611c25565b600760008381526020019081526020016000208054600181600116156101000203166002900480601f016020809104026020016040519081016040528092919081815260200182805460018160011615610100020316600290048015610e6f5780601f10610e4457610100808354040283529160200191610e6f565b820191906000526020600020905b815481529060010190602001808311610e5257829003601f168201915b50505050509050919050565b803373ffffffffffffffffffffffffffffffffffffffff16610e9c82610c70565b73ffffffffffffffffffffffffffffffffffffffff16141515610ebe57600080fd5b610ec93384846114ee565b505050565b610ed83382611637565b1515610ee357600080fd5b610ef6610eef82610c70565b33836114ee565b50565b6000600560009054906101000a900473ffffffffffffffffffffffffffffffffffffffff1673ffffffffffffffffffffffffffffffffffffffff163373ffffffffffffffffffffffffffffffffffffffff16141515610f5757600080fd5b600090505b8281101561105a57610f7084600954611678565b60206040519081016040528060008152506007600060095481526020019081526020016000209080519060200190610fa9929190611c4d565b50816008600060095481526020019081526020016000208190555060a06040519081016040528060008152602001600081526020016000815260200160008152602001600081525060066000600954815260200190815260200160002060008201518160000155602082015181600101556040820151816002015560608201518160030155608082015181600401559050506009600081548092919060010191905055508080600101915050610f5c565b50505050565b600060086000838152602001908152602001600020549050919050565b813373ffffffffffffffffffffffffffffffffffffffff1661109e82610c70565b73ffffffffffffffffffffffffffffffffffffffff161415156110c057600080fd5b816007600085815260200190815260200160002090805190602001906110e7929190611c4d565b50505050565b6000806000806000600660008781526020019081526020016000206000015460066000888152602001908152602001600020600101546006600089815260200190815260200160002060020154600660008a815260200190815260200160002060030154600660008b8152602001908152602001600020600401549450945094509450945091939590929450565b6000600560009054906101000a900473ffffffffffffffffffffffffffffffffffffffff1673ffffffffffffffffffffffffffffffffffffffff163373ffffffffffffffffffffffffffffffffffffffff161415156111d957600080fd5b600090505b828110156112dc576111f233600954611678565b6020604051908101604052806000815250600760006009548152602001908152602001600020908051906020019061122b929190611c4d565b50816008600060095481526020019081526020016000208190555060a060405190810160405280600081526020016000815260200160008152602001600081526020016000815250600660006009548152602001908152602001600020600082015181600001556020820151816001015560408201518160020155606082015181600301556080820151816004015590505060096000815480929190600101919050555080806001019150506111de565b505050565b600560009054906101000a900473ffffffffffffffffffffffffffffffffffffffff1673ffffffffffffffffffffffffffffffffffffffff163373ffffffffffffffffffffffffffffffffffffffff1614151561133d57600080fd5b600073ffffffffffffffffffffffffffffffffffffffff168173ffffffffffffffffffffffffffffffffffffffff161415151561137957600080fd5b8073ffffffffffffffffffffffffffffffffffffffff16600560009054906101000a900473ffffffffffffffffffffffffffffffffffffffff1673ffffffffffffffffffffffffffffffffffffffff167f8be0079c531659141344cd1fd0a4f28419497f9722a3daafe3b4186f6b6457e060405160405180910390a380600560006101000a81548173ffffffffffffffffffffffffffffffffffffffff021916908373ffffffffffffffffffffffffffffffffffffffff16021790555050565b6000600560009054906101000a900473ffffffffffffffffffffffffffffffffffffffff1673ffffffffffffffffffffffffffffffffffffffff163373ffffffffffffffffffffffffffffffffffffffff1614151561149757600080fd5b600090505b828110156114e9576114b033600a54611678565b8160086000600a54815260200190815260200160002081905550600a60008154809291906001019190505550808060010191505061149c565b505050565b600073ffffffffffffffffffffffffffffffffffffffff168273ffffffffffffffffffffffffffffffffffffffff161415151561152a57600080fd5b61153381610c70565b73ffffffffffffffffffffffffffffffffffffffff168273ffffffffffffffffffffffffffffffffffffffff161415151561156d57600080fd5b8273ffffffffffffffffffffffffffffffffffffffff1661158d82610c70565b73ffffffffffffffffffffffffffffffffffffffff161415156115af57600080fd5b6115b98382611712565b6115c383826117fb565b6115cd8282611a83565b8173ffffffffffffffffffffffffffffffffffffffff168373ffffffffffffffffffffffffffffffffffffffff167fddf252ad1be2c89b69c2b068fc378daa952ba7f163c4a11628f55a4df523b3ef836040518082815260200191505060405180910390a3505050565b60008273ffffffffffffffffffffffffffffffffffffffff1661165983610ac3565b73ffffffffffffffffffffffffffffffffffffffff1614905092915050565b600073ffffffffffffffffffffffffffffffffffffffff168273ffffffffffffffffffffffffffffffffffffffff16141515156116b457600080fd5b6116be8282611a83565b8173ffffffffffffffffffffffffffffffffffffffff1660007fddf252ad1be2c89b69c2b068fc378daa952ba7f163c4a11628f55a4df523b3ef836040518082815260200191505060405180910390a35050565b8173ffffffffffffffffffffffffffffffffffffffff1661173282610c70565b73ffffffffffffffffffffffffffffffffffffffff1614151561175457600080fd5b60006002600083815260200190815260200160002060006101000a81548173ffffffffffffffffffffffffffffffffffffffff021916908373ffffffffffffffffffffffffffffffffffffffff16021790555060008273ffffffffffffffffffffffffffffffffffffffff167f8c5be1e5ebec7d5bd14f71427d1e84f3dd0314c0f7b2291e5b200ac8c7c3b925836040518082815260200191505060405180910390a35050565b60008060008473ffffffffffffffffffffffffffffffffffffffff1661182085610c70565b73ffffffffffffffffffffffffffffffffffffffff1614151561184257600080fd5b60046000858152602001908152602001600020549250611874600161186687610d0e565b611bee90919063ffffffff16565b9150600360008673ffffffffffffffffffffffffffffffffffffffff1673ffffffffffffffffffffffffffffffffffffffff168152602001908152602001600020828154811015156118c257fe5b906000526020600020900154905060006001600086815260200190815260200160002060006101000a81548173ffffffffffffffffffffffffffffffffffffffff021916908373ffffffffffffffffffffffffffffffffffffffff16021790555080600360008773ffffffffffffffffffffffffffffffffffffffff1673ffffffffffffffffffffffffffffffffffffffff1681526020019081526020016000208481548110151561197057fe5b9060005260206000209001819055506000600360008773ffffffffffffffffffffffffffffffffffffffff1673ffffffffffffffffffffffffffffffffffffffff168152602001908152602001600020838154811015156119cd57fe5b906000526020600020900181905550600360008673ffffffffffffffffffffffffffffffffffffffff1673ffffffffffffffffffffffffffffffffffffffff168152602001908152602001600020805480919060019003611a2e9190611ccd565b5060006004600086815260200190815260200160002081905550826004600083815260200190815260200160002081905550611a766001600054611bee90919063ffffffff16565b6000819055505050505050565b60008073ffffffffffffffffffffffffffffffffffffffff166001600084815260200190815260200160002060009054906101000a900473ffffffffffffffffffffffffffffffffffffffff1673ffffffffffffffffffffffffffffffffffffffff16141515611af257600080fd5b826001600084815260200190815260200160002060006101000a81548173ffffffffffffffffffffffffffffffffffffffff021916908373ffffffffffffffffffffffffffffffffffffffff160217905550611b4d83610d0e565b9050600360008473ffffffffffffffffffffffffffffffffffffffff1673ffffffffffffffffffffffffffffffffffffffff1681526020019081526020016000208054806001018281611ba09190611cf9565b916000526020600020900160008490919091505550806004600084815260200190815260200160002081905550611be36001600054611c0790919063ffffffff16565b600081905550505050565b6000828211151515611bfc57fe5b818303905092915050565b6000808284019050838110151515611c1b57fe5b8091505092915050565b602060405190810160405280600081525090565b602060405190810160405280600081525090565b828054600181600116156101000203166002900490600052602060002090601f016020900481019282601f10611c8e57805160ff1916838001178555611cbc565b82800160010185558215611cbc579182015b82811115611cbb578251825591602001919060010190611ca0565b5b509050611cc99190611d25565b5090565b815481835581811511611cf457818360005260206000209182019101611cf39190611d25565b5b505050565b815481835581811511611d2057818360005260206000209182019101611d1f9190611d25565b5b505050565b611d4791905b80821115611d43576000816000905550600101611d2b565b5090565b905600a165627a7a72305820d4997642c81e83fabc4ddd2c2229b1aad329e531d9e126f2bd584939bd6221680029",
  "source": "pragma solidity ^0.4.19;\nimport 'zeppelin-solidity/contracts/token/ERC721/ERC721Token.sol';\nimport 'zeppelin-solidity/contracts/ownership/Ownable.sol';\nimport './GhostMeta.sol';\n\ncontract CryptoGhosts is ERC721Token, Ownable, GhostMeta {\n\n  string constant private tokenName = \"CryptoGhosts\";\n  string constant private tokenSymbol = \"SPOOK\";\n  uint256 private ghostId = 1;\n  uint256 private itemId = 1;\n\n  function CreateGhosts(uint256 amount, uint256 ghostType) public onlyOwner {\n    for(uint i = 0; i < amount; i++) {\n      _mint(msg.sender, ghostId);\n      ghostNames[ghostId] = '';\n      bodyType[ghostId] = ghostType;\n      items[ghostId] = Items(0, 0, 0, 0, 0);\n      ghostId++;\n    }\n  }\n\n  function CreateGhosts(address account, uint256 amount, uint256 ghostType) public onlyOwner {\n    for(uint i = 0; i < amount; i++) {\n      _mint(account, ghostId);\n      ghostNames[ghostId] = '';\n      bodyType[ghostId] = ghostType;\n      items[ghostId] = Items(0, 0, 0, 0, 0);\n      ghostId++;\n    }\n  }\n\n  function CreateItems(uint256 amount, uint256 itemType) public onlyOwner {\n    for(uint i = 0; i < amount; i++) {\n      _mint(msg.sender, itemId);\n      bodyType[itemId] = itemType;\n      itemId++;\n    }\n  }\n\n  function getGhosts() public view returns (uint256[], uint[]) {\n    uint256[] memory tokens = tokensOf(msg.sender);\n    uint[] memory bodyTypes = new uint[](tokens.length);\n    for (uint i = 0; i < tokens.length; i++) {\n      bodyTypes[i] = getBodyType(tokens[i]);\n    }\n    return (tokens, bodyTypes);\n  }\n\n  function name() pure public returns (string) {\n    return tokenName;\n  }\n}\n\n",
  "sourcePath": "/Users/taylor/dev/cryptoghosts/blockchain/contracts/CryptoGhosts.sol",
  "compiler": {
    "name": "solc",
    "version": "0.4.19+commit.c4cbbb05.Emscripten.clang"
  },
  "schemaVersion": "1.0.1",
  "updatedAt": "2018-02-24T01:30:40.633Z"
}