{
  "contractName": "CryptoGhosts",
  "abi": [
    {
      "constant": false,
      "inputs": [
        {
          "name": "_to",
          "type": "address"
        },
        {
          "name": "_tokenId",
          "type": "uint256"
        }
      ],
      "name": "approve",
      "outputs": [],
      "payable": false,
      "stateMutability": "nonpayable",
      "type": "function"
    },
    {
      "constant": true,
      "inputs": [],
      "name": "totalSupply",
      "outputs": [
        {
          "name": "",
          "type": "uint256"
        }
      ],
      "payable": false,
      "stateMutability": "view",
      "type": "function"
    },
    {
      "constant": true,
      "inputs": [
        {
          "name": "_tokenId",
          "type": "uint256"
        }
      ],
      "name": "approvedFor",
      "outputs": [
        {
          "name": "",
          "type": "address"
        }
      ],
      "payable": false,
      "stateMutability": "view",
      "type": "function"
    },
    {
      "constant": true,
      "inputs": [
        {
          "name": "_owner",
          "type": "address"
        }
      ],
      "name": "tokensOf",
      "outputs": [
        {
          "name": "",
          "type": "uint256[]"
        }
      ],
      "payable": false,
      "stateMutability": "view",
      "type": "function"
    },
    {
      "constant": true,
      "inputs": [
        {
          "name": "_tokenId",
          "type": "uint256"
        }
      ],
      "name": "ownerOf",
      "outputs": [
        {
          "name": "",
          "type": "address"
        }
      ],
      "payable": false,
      "stateMutability": "view",
      "type": "function"
    },
    {
      "constant": true,
      "inputs": [
        {
          "name": "_owner",
          "type": "address"
        }
      ],
      "name": "balanceOf",
      "outputs": [
        {
          "name": "",
          "type": "uint256"
        }
      ],
      "payable": false,
      "stateMutability": "view",
      "type": "function"
    },
    {
      "constant": true,
      "inputs": [],
      "name": "owner",
      "outputs": [
        {
          "name": "",
          "type": "address"
        }
      ],
      "payable": false,
      "stateMutability": "view",
      "type": "function"
    },
    {
      "constant": false,
      "inputs": [
        {
          "name": "_to",
          "type": "address"
        },
        {
          "name": "_tokenId",
          "type": "uint256"
        }
      ],
      "name": "transfer",
      "outputs": [],
      "payable": false,
      "stateMutability": "nonpayable",
      "type": "function"
    },
    {
      "constant": false,
      "inputs": [
        {
          "name": "_tokenId",
          "type": "uint256"
        }
      ],
      "name": "takeOwnership",
      "outputs": [],
      "payable": false,
      "stateMutability": "nonpayable",
      "type": "function"
    },
    {
      "constant": false,
      "inputs": [
        {
          "name": "newOwner",
          "type": "address"
        }
      ],
      "name": "transferOwnership",
      "outputs": [],
      "payable": false,
      "stateMutability": "nonpayable",
      "type": "function"
    },
    {
      "anonymous": false,
      "inputs": [
        {
          "indexed": true,
          "name": "previousOwner",
          "type": "address"
        },
        {
          "indexed": true,
          "name": "newOwner",
          "type": "address"
        }
      ],
      "name": "OwnershipTransferred",
      "type": "event"
    },
    {
      "anonymous": false,
      "inputs": [
        {
          "indexed": true,
          "name": "_from",
          "type": "address"
        },
        {
          "indexed": true,
          "name": "_to",
          "type": "address"
        },
        {
          "indexed": false,
          "name": "_tokenId",
          "type": "uint256"
        }
      ],
      "name": "Transfer",
      "type": "event"
    },
    {
      "anonymous": false,
      "inputs": [
        {
          "indexed": true,
          "name": "_owner",
          "type": "address"
        },
        {
          "indexed": true,
          "name": "_approved",
          "type": "address"
        },
        {
          "indexed": false,
          "name": "_tokenId",
          "type": "uint256"
        }
      ],
      "name": "Approval",
      "type": "event"
    },
    {
      "constant": false,
      "inputs": [
        {
          "name": "_account",
          "type": "address"
        },
        {
          "name": "_ghostType",
          "type": "uint256"
        },
        {
          "name": "_amount",
          "type": "uint256"
        }
      ],
      "name": "CreateGhosts",
      "outputs": [],
      "payable": false,
      "stateMutability": "nonpayable",
      "type": "function"
    },
    {
      "constant": true,
      "inputs": [
        {
          "name": "_ghostId",
          "type": "uint256"
        }
      ],
      "name": "typeOf",
      "outputs": [
        {
          "name": "",
          "type": "uint256"
        }
      ],
      "payable": false,
      "stateMutability": "view",
      "type": "function"
    },
    {
      "constant": true,
      "inputs": [
        {
          "name": "_account",
          "type": "address"
        }
      ],
      "name": "ghostsOf",
      "outputs": [
        {
          "name": "",
          "type": "uint256[]"
        },
        {
          "name": "",
          "type": "uint256[]"
        }
      ],
      "payable": false,
      "stateMutability": "view",
      "type": "function"
    },
    {
      "constant": false,
      "inputs": [
        {
          "name": "_account",
          "type": "address"
        },
        {
          "name": "_itemType",
          "type": "uint256"
        },
        {
          "name": "_amount",
          "type": "uint256"
        }
      ],
      "name": "CreateItems",
      "outputs": [],
      "payable": false,
      "stateMutability": "nonpayable",
      "type": "function"
    },
    {
      "constant": true,
      "inputs": [
        {
          "name": "_account",
          "type": "address"
        }
      ],
      "name": "itemsOf",
      "outputs": [
        {
          "name": "",
          "type": "uint256[]"
        },
        {
          "name": "",
          "type": "uint256[]"
        }
      ],
      "payable": false,
      "stateMutability": "view",
      "type": "function"
    },
    {
      "constant": true,
      "inputs": [],
      "name": "name",
      "outputs": [
        {
          "name": "",
          "type": "string"
        }
      ],
      "payable": false,
      "stateMutability": "pure",
      "type": "function"
    }
  ],
  "bytecode": "0x60606040526000600655633b9aca0060075533600560006101000a81548173ffffffffffffffffffffffffffffffffffffffff021916908373ffffffffffffffffffffffffffffffffffffffff160217905550611959806100616000396000f3006060604052600436106100e6576000357c0100000000000000000000000000000000000000000000000000000000900463ffffffff16806306fdde03146100eb578063095ea7b31461017957806318160ddd146101bb5780632a6dd48f146101e45780635a3f2672146102475780636352211e146102d557806370a08231146103385780637231a876146103855780638da5cb5b1461045b57806396a0b205146104b0578063a9059cbb14610586578063ad8125aa146105c8578063b2e6ceeb14610613578063b3cdc28814610636578063c588ff8b14610681578063f2fde38b146106b8575b600080fd5b34156100f657600080fd5b6100fe6106f1565b6040518080602001828103825283818151815260200191508051906020019080838360005b8381101561013e578082015181840152602081019050610123565b50505050905090810190601f16801561016b5780820380516001836020036101000a031916815260200191505b509250505060405180910390f35b341561018457600080fd5b6101b9600480803573ffffffffffffffffffffffffffffffffffffffff16906020019091908035906020019091905050610734565b005b34156101c657600080fd5b6101ce6108c7565b6040518082815260200191505060405180910390f35b34156101ef57600080fd5b61020560048080359060200190919050506108d0565b604051808273ffffffffffffffffffffffffffffffffffffffff1673ffffffffffffffffffffffffffffffffffffffff16815260200191505060405180910390f35b341561025257600080fd5b61027e600480803573ffffffffffffffffffffffffffffffffffffffff1690602001909190505061090d565b6040518080602001828103825283818151815260200191508051906020019060200280838360005b838110156102c15780820151818401526020810190506102a6565b505050509050019250505060405180910390f35b34156102e057600080fd5b6102f660048080359060200190919050506109aa565b604051808273ffffffffffffffffffffffffffffffffffffffff1673ffffffffffffffffffffffffffffffffffffffff16815260200191505060405180910390f35b341561034357600080fd5b61036f600480803573ffffffffffffffffffffffffffffffffffffffff16906020019091905050610a28565b6040518082815260200191505060405180910390f35b341561039057600080fd5b6103bc600480803573ffffffffffffffffffffffffffffffffffffffff16906020019091905050610a74565b604051808060200180602001838103835285818151815260200191508051906020019060200280838360005b838110156104035780820151818401526020810190506103e8565b50505050905001838103825284818151815260200191508051906020019060200280838360005b8381101561044557808201518184015260208101905061042a565b5050505090500194505050505060405180910390f35b341561046657600080fd5b61046e610bb8565b604051808273ffffffffffffffffffffffffffffffffffffffff1673ffffffffffffffffffffffffffffffffffffffff16815260200191505060405180910390f35b34156104bb57600080fd5b6104e7600480803573ffffffffffffffffffffffffffffffffffffffff16906020019091905050610bde565b604051808060200180602001838103835285818151815260200191508051906020019060200280838360005b8381101561052e578082015181840152602081019050610513565b50505050905001838103825284818151815260200191508051906020019060200280838360005b83811015610570578082015181840152602081019050610555565b5050505090500194505050505060405180910390f35b341561059157600080fd5b6105c6600480803573ffffffffffffffffffffffffffffffffffffffff16906020019091908035906020019091905050610d22565b005b34156105d357600080fd5b610611600480803573ffffffffffffffffffffffffffffffffffffffff16906020019091908035906020019091908035906020019091905050610d75565b005b341561061e57600080fd5b6106346004808035906020019091905050610e93565b005b341561064157600080fd5b61067f600480803573ffffffffffffffffffffffffffffffffffffffff16906020019091908035906020019091908035906020019091905050610ebe565b005b341561068c57600080fd5b6106a26004808035906020019091905050610fdc565b6040518082815260200191505060405180910390f35b34156106c357600080fd5b6106ef600480803573ffffffffffffffffffffffffffffffffffffffff16906020019091905050610ff9565b005b6106f9611888565b6040805190810160405280600c81526020017f43727970746f47686f7374730000000000000000000000000000000000000000815250905090565b6000813373ffffffffffffffffffffffffffffffffffffffff16610757826109aa565b73ffffffffffffffffffffffffffffffffffffffff1614151561077957600080fd5b610782836109aa565b91508173ffffffffffffffffffffffffffffffffffffffff168473ffffffffffffffffffffffffffffffffffffffff16141515156107bf57600080fd5b60006107ca846108d0565b73ffffffffffffffffffffffffffffffffffffffff16141580610804575060008473ffffffffffffffffffffffffffffffffffffffff1614155b156108c157836002600085815260200190815260200160002060006101000a81548173ffffffffffffffffffffffffffffffffffffffff021916908373ffffffffffffffffffffffffffffffffffffffff1602179055508373ffffffffffffffffffffffffffffffffffffffff168273ffffffffffffffffffffffffffffffffffffffff167f8c5be1e5ebec7d5bd14f71427d1e84f3dd0314c0f7b2291e5b200ac8c7c3b925856040518082815260200191505060405180910390a35b50505050565b60008054905090565b60006002600083815260200190815260200160002060009054906101000a900473ffffffffffffffffffffffffffffffffffffffff169050919050565b61091561189c565b600360008373ffffffffffffffffffffffffffffffffffffffff1673ffffffffffffffffffffffffffffffffffffffff16815260200190815260200160002080548060200260200160405190810160405280929190818152602001828054801561099e57602002820191906000526020600020905b81548152602001906001019080831161098a575b50505050509050919050565b6000806001600084815260200190815260200160002060009054906101000a900473ffffffffffffffffffffffffffffffffffffffff169050600073ffffffffffffffffffffffffffffffffffffffff168173ffffffffffffffffffffffffffffffffffffffff1614151515610a1f57600080fd5b80915050919050565b6000600360008373ffffffffffffffffffffffffffffffffffffffff1673ffffffffffffffffffffffffffffffffffffffff168152602001908152602001600020805490509050919050565b610a7c61189c565b610a8461189c565b610a8c61189c565b610a9461189c565b6000600a60008773ffffffffffffffffffffffffffffffffffffffff1673ffffffffffffffffffffffffffffffffffffffff168152602001908152602001600020805480602002602001604051908101604052809291908181526020018280548015610b1f57602002820191906000526020600020905b815481526020019060010190808311610b0b575b505050505092508251604051805910610b355750595b90808252806020026020018201604052509150600090505b8251811015610baa57600b60008483815181101515610b6857fe5b906020019060200201518152602001908152602001600020548282815181101515610b8f57fe5b90602001906020020181815250508080600101915050610b4d565b828294509450505050915091565b600560009054906101000a900473ffffffffffffffffffffffffffffffffffffffff1681565b610be661189c565b610bee61189c565b610bf661189c565b610bfe61189c565b6000600860008773ffffffffffffffffffffffffffffffffffffffff1673ffffffffffffffffffffffffffffffffffffffff168152602001908152602001600020805480602002602001604051908101604052809291908181526020018280548015610c8957602002820191906000526020600020905b815481526020019060010190808311610c75575b505050505092508251604051805910610c9f5750595b90808252806020026020018201604052509150600090505b8251811015610d1457600960008483815181101515610cd257fe5b906020019060200201518152602001908152602001600020548282815181101515610cf957fe5b90602001906020020181815250508080600101915050610cb7565b828294509450505050915091565b803373ffffffffffffffffffffffffffffffffffffffff16610d43826109aa565b73ffffffffffffffffffffffffffffffffffffffff16141515610d6557600080fd5b610d70338484611151565b505050565b6000600560009054906101000a900473ffffffffffffffffffffffffffffffffffffffff1673ffffffffffffffffffffffffffffffffffffffff163373ffffffffffffffffffffffffffffffffffffffff16141515610dd357600080fd5b600090505b81811015610e8d57600760008154809291906001019190505550610dfe8460075461129a565b82600b6000600754815260200190815260200160002081905550600a60008573ffffffffffffffffffffffffffffffffffffffff1673ffffffffffffffffffffffffffffffffffffffff1681526020019081526020016000208054806001018281610e6991906118b0565b91600052602060002090016000600754909190915055508080600101915050610dd8565b50505050565b610e9d3382611334565b1515610ea857600080fd5b610ebb610eb4826109aa565b3383611151565b50565b6000600560009054906101000a900473ffffffffffffffffffffffffffffffffffffffff1673ffffffffffffffffffffffffffffffffffffffff163373ffffffffffffffffffffffffffffffffffffffff16141515610f1c57600080fd5b600090505b81811015610fd657600660008154809291906001019190505550610f478460065461129a565b8260096000600654815260200190815260200160002081905550600860008573ffffffffffffffffffffffffffffffffffffffff1673ffffffffffffffffffffffffffffffffffffffff1681526020019081526020016000208054806001018281610fb291906118b0565b91600052602060002090016000600654909190915055508080600101915050610f21565b50505050565b600060096000838152602001908152602001600020549050919050565b600560009054906101000a900473ffffffffffffffffffffffffffffffffffffffff1673ffffffffffffffffffffffffffffffffffffffff163373ffffffffffffffffffffffffffffffffffffffff1614151561105557600080fd5b600073ffffffffffffffffffffffffffffffffffffffff168173ffffffffffffffffffffffffffffffffffffffff161415151561109157600080fd5b8073ffffffffffffffffffffffffffffffffffffffff16600560009054906101000a900473ffffffffffffffffffffffffffffffffffffffff1673ffffffffffffffffffffffffffffffffffffffff167f8be0079c531659141344cd1fd0a4f28419497f9722a3daafe3b4186f6b6457e060405160405180910390a380600560006101000a81548173ffffffffffffffffffffffffffffffffffffffff021916908373ffffffffffffffffffffffffffffffffffffffff16021790555050565b600073ffffffffffffffffffffffffffffffffffffffff168273ffffffffffffffffffffffffffffffffffffffff161415151561118d57600080fd5b611196816109aa565b73ffffffffffffffffffffffffffffffffffffffff168273ffffffffffffffffffffffffffffffffffffffff16141515156111d057600080fd5b8273ffffffffffffffffffffffffffffffffffffffff166111f0826109aa565b73ffffffffffffffffffffffffffffffffffffffff1614151561121257600080fd5b61121c8382611375565b611226838261145e565b61123082826116e6565b8173ffffffffffffffffffffffffffffffffffffffff168373ffffffffffffffffffffffffffffffffffffffff167fddf252ad1be2c89b69c2b068fc378daa952ba7f163c4a11628f55a4df523b3ef836040518082815260200191505060405180910390a3505050565b600073ffffffffffffffffffffffffffffffffffffffff168273ffffffffffffffffffffffffffffffffffffffff16141515156112d657600080fd5b6112e082826116e6565b8173ffffffffffffffffffffffffffffffffffffffff1660007fddf252ad1be2c89b69c2b068fc378daa952ba7f163c4a11628f55a4df523b3ef836040518082815260200191505060405180910390a35050565b60008273ffffffffffffffffffffffffffffffffffffffff16611356836108d0565b73ffffffffffffffffffffffffffffffffffffffff1614905092915050565b8173ffffffffffffffffffffffffffffffffffffffff16611395826109aa565b73ffffffffffffffffffffffffffffffffffffffff161415156113b757600080fd5b60006002600083815260200190815260200160002060006101000a81548173ffffffffffffffffffffffffffffffffffffffff021916908373ffffffffffffffffffffffffffffffffffffffff16021790555060008273ffffffffffffffffffffffffffffffffffffffff167f8c5be1e5ebec7d5bd14f71427d1e84f3dd0314c0f7b2291e5b200ac8c7c3b925836040518082815260200191505060405180910390a35050565b60008060008473ffffffffffffffffffffffffffffffffffffffff16611483856109aa565b73ffffffffffffffffffffffffffffffffffffffff161415156114a557600080fd5b600460008581526020019081526020016000205492506114d760016114c987610a28565b61185190919063ffffffff16565b9150600360008673ffffffffffffffffffffffffffffffffffffffff1673ffffffffffffffffffffffffffffffffffffffff1681526020019081526020016000208281548110151561152557fe5b906000526020600020900154905060006001600086815260200190815260200160002060006101000a81548173ffffffffffffffffffffffffffffffffffffffff021916908373ffffffffffffffffffffffffffffffffffffffff16021790555080600360008773ffffffffffffffffffffffffffffffffffffffff1673ffffffffffffffffffffffffffffffffffffffff168152602001908152602001600020848154811015156115d357fe5b9060005260206000209001819055506000600360008773ffffffffffffffffffffffffffffffffffffffff1673ffffffffffffffffffffffffffffffffffffffff1681526020019081526020016000208381548110151561163057fe5b906000526020600020900181905550600360008673ffffffffffffffffffffffffffffffffffffffff1673ffffffffffffffffffffffffffffffffffffffff16815260200190815260200160002080548091906001900361169191906118dc565b50600060046000868152602001908152602001600020819055508260046000838152602001908152602001600020819055506116d9600160005461185190919063ffffffff16565b6000819055505050505050565b60008073ffffffffffffffffffffffffffffffffffffffff166001600084815260200190815260200160002060009054906101000a900473ffffffffffffffffffffffffffffffffffffffff1673ffffffffffffffffffffffffffffffffffffffff1614151561175557600080fd5b826001600084815260200190815260200160002060006101000a81548173ffffffffffffffffffffffffffffffffffffffff021916908373ffffffffffffffffffffffffffffffffffffffff1602179055506117b083610a28565b9050600360008473ffffffffffffffffffffffffffffffffffffffff1673ffffffffffffffffffffffffffffffffffffffff168152602001908152602001600020805480600101828161180391906118b0565b916000526020600020900160008490919091505550806004600084815260200190815260200160002081905550611846600160005461186a90919063ffffffff16565b600081905550505050565b600082821115151561185f57fe5b818303905092915050565b600080828401905083811015151561187e57fe5b8091505092915050565b602060405190810160405280600081525090565b602060405190810160405280600081525090565b8154818355818115116118d7578183600052602060002091820191016118d69190611908565b5b505050565b815481835581811511611903578183600052602060002091820191016119029190611908565b5b505050565b61192a91905b8082111561192657600081600090555060010161190e565b5090565b905600a165627a7a7230582004828c4c30e9f9cae56b242eb27aed64c3057e9b6bb465c93f70495bc57f66ff0029",
  "source": "pragma solidity ^0.4.19;\nimport 'zeppelin-solidity/contracts/token/ERC721/ERC721Token.sol';\nimport 'zeppelin-solidity/contracts/ownership/Ownable.sol';\n\ncontract CryptoGhosts is ERC721Token, Ownable {\n  string constant private tokenName = \"CryptoGhosts\";\n  string constant private tokenSymbol = \"SPOOK\";\n  uint256 private ghostId = 0;\n  uint256 private itemId = 1000000000;\n\n  mapping (address => uint256[]) internal ownedGhosts;\n  mapping (uint256 => uint) internal ghostType;\n\n  mapping (address => uint256[]) internal ownedItems;\n  mapping (uint256 => uint) internal itemmeta;\n\n  function CreateGhosts(address _account, uint _ghostType, uint256 _amount) public onlyOwner {\n    for(uint i = 0; i < _amount; i++) {\n      ghostId++;\n      _mint(_account, ghostId);\n      ghostType[ghostId] = _ghostType;\n      ownedGhosts[_account].push(ghostId);\n    }\n  }\n\n  function typeOf(uint256 _ghostId) public view returns (uint) {\n    return ghostType[_ghostId];\n  }\n\n  function ghostsOf(address _account) public view returns (uint256[], uint[]) {\n    uint256[] memory ghts = ownedGhosts[_account];\n    uint[] memory bTypes = new uint[](ghts.length);\n    for (uint i = 0; i < ghts.length; i++) {\n      bTypes[i] = ghostType[ghts[i]];\n    }\n    return (ghts, bTypes);\n  }\n\n  function CreateItems(address _account, uint _itemType, uint256 _amount) public onlyOwner {\n    for(uint i = 0; i < _amount; i++) {\n      itemId++;\n      _mint(_account, itemId);\n      itemmeta[itemId] = _itemType;\n      ownedItems[_account].push(itemId);\n    }\n  }\n\n  function itemsOf(address _account) public view returns (uint256[], uint[]) {\n    uint256[] memory itms = ownedItems[_account];\n    uint[] memory itTypes = new uint[](itms.length);\n    for (uint i = 0; i < itms.length; i++) {\n        itTypes[i] = itemmeta[itms[i]];\n    }\n    return (itms, itTypes);\n  }\n\n  function name() pure public returns (string) {\n    return tokenName;\n  }\n}\n",
  "sourcePath": "/Users/taylor/dev/cryptoghosts/blockchain/contracts/CryptoGhosts.sol",
  "compiler": {
    "name": "solc",
    "version": "0.4.19+commit.c4cbbb05.Emscripten.clang"
  },
  "schemaVersion": "1.0.1",
  "updatedAt": "2018-02-28T20:10:26.458Z"
}